:020000040000fa
:10000000f0ff0220257b0000c3450000d35d000007
:100010004b6a000077720000df77000000000000ec
:10002000000000000000000000000000219c000013
:100030008765000000000000c182000015980000e4
:10004000137a0000137a0000137a0000137a00007c
:10005000137a0000137a0000137a0000137a00006c
:10006000137a0000137a0000137a00006d980000e4
:10007000137a0000137a0000137a0000137a00004c
:10008000137a0000137a0000137a0000137a00003c
:10009000137a0000137a0000137a0000137a00002c
:1000a000137a0000137a0000137a0000137a00001c
:1000b000137a0000137a0000137a0000137a00000c
:1000c000137a0000137a0000137a0000137a0000fc
:1000d000137a0000137a0000137a0000137a0000ec
:1000e000137a0000137a00000000000000000000f6
:1000f00000000000137a0000137a0000137a000059
:10010000137a0000137a0000137a0000137a0000bb
:10011000137a0000137a0000f1520000f15200003f
:10012000f1520000f1520000137a0000137a00002f
:10013000137a0000137a00007972000079720000cf
:100140007972000079720000137a0000137a0000bf
:10015000137a0000137a0000137a0000137a00006b
:10016000137a0000137a0000137a0000137a00005b
:10017000137a0000137a0000137a0000137a00004b
:10018000137a0000137a0000137a0000137a00003b
:1001900000000000137a0000137a0000137a0000b8
:1001a000137a0000137a0000137a0000137a00001b
:1001b000137a0000137a0000137a0000137a00000b
:1001c000137a0000137a0000137a0000137a0000fb
:1001d000137a0000137a0000137a0000137a0000eb
:1001e000137a0000137a0000137a0000137a0000db
:1001f000137a0000137a0000137a0000137a0000cb
:10020000137a0000137a0000137a0000137a0000ba
:10021000137a0000137a0000137a0000137a0000aa
:10022000137a0000137a0000137a0000137a00009a
:10023000137a0000137a0000137a0000137a00008a
:10024000137a0000137a0000137a0000137a00007a
:10025000137a0000137a0000137a0000137a00006a
:020000040000fa
:10026000f8b500bff8bc08bc9e4670475d91000021
:10027000f8b500bff8bc08bc9e4670473991000035
:020000040000fa
:08028000982d000001000000b0
:020000040000fa
:100288002de9f04f97b011900d461746009311a82d
:1002980008f092f90028c0f28c83b74b53f820304d
:1002a8000bb100221a70b54b13f81020019203eb22
:1002b800400393f8019010460af0f8f810f0010f87
:1002c80040f0798310f0040f40f07a83002d00f09d
:1002d800c1836b681593002b00f0bf83159a531eda
:1002e800b3f5004f01d21a4201d00123159395f8b6
:1002f800018008f1ff33dbb2022b28bf4ff0010861
:10030800ae68731eb3f5004f48d206f00f03002bfa
:1003180018bf4ff40076ec68b4f1807f41d8631eb3
:100328002340002b18bf0024009bb3f5007fc0f0ca
:100338004983002f00f048832b78029300231493fd
:10034800b9f1000f2fd0012300223946019809f096
:100358009ffa002840f03a8397f8ff2197f8fe317a
:1003680043ea02231bb2864a934240f0318307ebeb
:10037800091505f5d775b9f1040f00f22b832b7910
:10038800002b00f0298305f1080009f043ff0390d2
:1003980005f10c0009f03eff14901ae04ff40076c6
:1003a800b9e70024c0e714aa0121019809f04ff821
:1003b800002840f01383029b13f0080f07d1149b09
:1003c8003f2b60d93f3b14933f23039301e0002365
:1003d8000393149b7f2b40f20383b4f5813f34bf12
:1003e800640a8024029b13f002020a924ed003f0a2
:1003f8000103002b0cbf032302230893c34609f013
:10040800e3fb1090ddf850a04fea1a3cc6f3161330
:10041800069303994a1c0c9213440593159b03f108
:10042800ff3e5b4204934fea5a430d9301f12003c8
:100438000b93cdf838800f96089e0997032e00f08d
:10044800e582002c42d02546bafbf5f340f6f5725a
:10045800934250d902335b0003f2ff13590a059bfc
:1004680001fb0b320eeb0203049803409b1ab3fb0b
:10047800fbf00bfb1030002844d0013b03980230fe
:100488000790022041e000230393a2e7029b13f0a8
:10049800010f00f0a78202230893afe72c46cde7af
:1004a800384b9a4510d9384b9a1c02252b460d9982
:1004b800099f8b4206d86d0032f8023f002bf8d115
:1004c8000997a7e20997a5e20125a3e2baf5805f9b
:1004d8000fd32e4b9a1c02250423099f634506d887
:1004e8006d0032f8023f002bf8d10997ace7099765
:1004f800aae70125a8e703eb430301335b080333ad
:100508000126a9e70c9807900120b3fbfbf30b44e5
:100518000699039fd21b02eb05129245c0f0668232
:100528004218aaeb02020bfb1322b2fbf5f2032ed0
:1005380013d0022e3ad14ff6f578424528d9002c2f
:1005480040f062826d00402da8d90a9b002b40f034
:100558005d82802d0ed82c4670e74ff6f57842451f
:1005680024d8002c40f04482012d01d96c0865e79d
:100578000e2321e20e231fe27cb700209cb7002047
:1005880055aaffffffff010094a4000084a4000007
:1005980040f6f577ba4200f2ed80002c40f02a824e
:1005a8006c00802c7ff64aaf0e2305e2ddf8388018
:1005b800059104460493334608960f9e0692099fb8
:1005c800012b40f0fa8040f6f5739a4200f214824b
:1005d8004ff400720021384609f080ffd24b03cb5c
:1005e800386079601a889b783a81bb720023fb7265
:1005f80002233b737d73bc73c4f30723fb7387f833
:1006080010807e74c6f30726be74baf5803f80f06a
:10061800f28087f813a0caf307233b75009b4feac3
:100628005328109b53449a46f8237b753f233b7607
:1006380000237b76ff22ba76fb76039907f11c002c
:1006480009f00cff089b032b00f0db80514607f1f3
:10065800270009f003ff049bbb75c3f30723fb7551
:10066800802387f82430292387f8263007f12b06c2
:10067800ae4c0fccc7f82b007160b260f3602288d3
:10068800a3783282b374552387f8fe31aa2387f8fa
:10069800ff310123039a3946019809f041f80028ef
:1006a80040f0ac81009b23f4ff7222f0010200218c
:1006b800384609f013ffbbf1000f00f0c881089b12
:1006c800012b9b4b18bf6ff0070300934ff0000af4
:1006d8000395079ecdf81890089b032b00f0138113
:1006e8000099384609f0bafe049d4ff000092c46df
:1006f800454528bf4446234632463946019809f005
:100708000ff8002840f07c814ff4007249463846c3
:1007180009f0e4fe26442d1be9d10af1010ad3456c
:10072800dad8039d0796ddf81890059b089a032ae6
:1007380008bf2b461d46079e2c46454528bf444604
:10074800234632463946019808f0eaff002840f06f
:10075800598126442d1befd1089a032a00f0f08016
:10076800149bb3f5803f80f0fc80022a0cbf042460
:100778000124e6e0ddf838800591044604930896e4
:100788000f9e0692099f4ff400720021384609f027
:10079800a5fe654b03cb386079601a889b783a814f
:1007a800bb720023fb7202233b737d73bc73c4f3db
:1007b8000723fb7387f8108023e74ff400720021aa
:1007c800384609f08bfe584b03cb386079601a889d
:1007d8009b783a81bb720023fb7202233b737d73c3
:1007e800bc73c4f30723fb7387f81080089b032ba3
:1007f80008bf002605e7514607f1200009f02efe44
:100808000ce7514607f1430009f028fe049907f167
:10081800240009f023fe022107f12c0009f01efe36
:100828004ff0010c87f830c0002387f831300622da
:1008380087f8322087f83330802387f8403029231f
:1008480087f842303b4c0fccc7f84700c7f84b102d
:10085800c7f84f20c7f853302288a378a7f8572045
:1008680087f85930552387f8fe31aa2387f8ff31d6
:100878006346039a3946019808f052ff08b10123ec
:100888009ae00123039ca21d3946019e304608f0d8
:1008980047ff4ff400720021384609f01ffe264931
:1008a800384609f0dbfd254907f5f27009f0d6fd59
:1008b800069b591e07f5f47009f0d0fd022107f5d3
:1008c800f67009f0cbfd552387f8fe31aa2387f887
:1008d800ff310123e21d3946304608f021ff01238c
:1008e8000c9a3946304608f01bff009b23f4ff7230
:1008f80022f001020021384609f0f0fdbbf1000f9b
:100908007ff4ddae11e76ff00701384609f0a6fd68
:100918004ff0ff31381d09f0a1fd6ff0704107f16c
:10092800080009f09bfddfe6288b0000488b0000db
:10093800f8ffff00348b000052526141727241612e
:100948000c24b9f1000f0ed1029b13f0080f22d02e
:1009580000221146019808f07afd031c18bf0123f4
:100968002ae00624ede7012300223946019d2846a6
:1009780008f08eff08b101231ee007eb091989f87a
:10098800b241012300223946284608f0c9fe002852
:10099800ded0012310e0149b1293002313933b46ef
:1009a800224612a9019803f009fe03460028cfd079
:1009b80002e00b2300e00323184617b0bde8f08fd0
:1009c8000a23f9e71123f7e71123f5e70123f3e7f2
:1009d8000e23f1e70e23efe70e23ede70123ebe704
:1009e8000e23e9e71323e7e70e23e5e70e23e3e702
:1009f8000e23e1e70e23dfe70e23dde70123dbe724
:100a08000123d9e70123d7e70a9bf3b1002c3ff470
:100a180047ad2546bafbf5f2930003f207235b0abc
:100a2800a2f57f42f63a10498a42ddd80b9e03fbb5
:100a38000b620eeb020104980140891a01f12000b3
:100a4800711807910021032663e50e23b4e7059d7d
:100a5800079e71e600231593044d15aa03210198fa
:100a680008f0f5fc3ae400bffffffe0fa4a4000065
:020000040000fa
:100a78002de9f04f85b00578303dedb290f8018052
:100a8800a8f130035ffa83f98778a7f13000c6b27e
:100a9800032003f061fa0446022d19d0032d00f05b
:100aa8005782012d05d0204605f096fb05b0bde81c
:100ab800f08f3423037080f801808770042108f0d8
:100ac800affa0221c14808f0abfa09f075fbeae772
:100ad800012e15d009f1ff330e2b00f23982dfe821
:100ae80013f0a9003a0154015f016a017d018801f0
:100af8009301a601b101b701dd01fb0106021f0246
:100b080009f1ff330e2b00f22382dfe803f0080b14
:100b180011171d23292f393f456277828c0006f073
:100b2800b1fa89e0aa4b4ff48032c3f8982017e154
:100b3800a74b4ff40032c3f898202be1a44b4ff495
:100b48000022c3f8982030e1a14b4ff48022c3f86b
:100b5800982035e19e4b4ff48002c3f8982042e17b
:100b68009b4b4ff40002c3f8982047e1984b4ff491
:100b78000012c3f818214ff40002c3f898204ce182
:100b8800934b4ff08072c3f8982055e1904b4ff08b
:100b98008042c3f89820e8e08d4b4ff400329a6108
:100ba8004ff40062c3f818214ff48052c3f818219b
:100bb8004ff40042c3f818214ff48042c3f81821bb
:100bc8004ff40052c3f818214ff48062c3f818217b
:100bd8005ae17f4b4ff4803199614ff400229a61ba
:100be800c3f81811c3f818214ff48022c3f818214c
:100bf8004ff40031c3f818119a6163e1744b4ff058
:100c08000042c3f898204ff400429a61c3f8982034
:100c1800abe06f4b4ff00042c3f898204ff400420e
:100c2800c3f8982073e16a4b4ff400429a61c3f805
:100c3800982083e106f078fa204605f0cdfa0d20d9
:100c480003f08af90446634d284608f0e3ffc0f331
:100c5800004000f1300a284608f0dcffc0f34040ad
:100c680000f13009284608f0d5ffc0f3c04000f174
:100c78003008284608f0ceffc0f3804000f1300766
:100c8800284608f0c7ffc0f3805000f13006284618
:100c980008f0c0ffc0f3c05000f130054e4808f01e
:100ca800b9ff10f4001f40f07b81002000f13003f1
:100cb8000093dff820b1584608f0acffc0f300609d
:100cc80000f130030193584608f0a4ff0028c0f251
:100cd8006d814ff0000b0bf1300b3d4808f09aff87
:100ce80010f4004f40f06881002000f130030293b7
:100cf800374808f08fff10f4003f40f06381002070
:100d080000f130030393324808f084ff10f4803f69
:100d180040f0868100203623237084f801a084f8ef
:100d2800029084f8038027716671a571009be371b6
:100d3800019b237284f809b0029ba372039be372a0
:100d4800303020730d21204608f06af902211f482f
:100d580008f066f9a7e61e4b4ff48032c3f89420da
:100d68001c4808f057ffc0f300463523237084f869
:100d7800018006f13000a0700421204608f050f9e7
:100d88000221124808f04cf98de6114b4ff400325d
:100d9800c3f894200f4808f03dffc0f34046e4e74d
:100da8000b4b4ff40022c3f894200a4808f032ff96
:100db800c0f3c046d9e7064b4ff48022c3f894200d
:100dc800044808f027ffc0f38046cee7f4a60000e9
:100dd800008000418080004100810041c44b4ff4f5
:100de8008002c3f89420c34808f014ffc0f380566b
:100df800bbe7bf4b4ff40002c3f89420bd4808f08e
:100e080009ffc0f3c056b0e7b94b4ff40012c3f85e
:100e180014214ff40002c3f89420b74808f0fafef2
:100e280010f4001f40f02a810026f6b29de7b04b6f
:100e38004ff08072c3f89420ae4808f0ebfec0f380
:100e4800006692e7aa4b4ff08042c3f894208ce7e3
:100e5800a74b4ff400325a614ff40062c3f81421d3
:100e68004ff48052c3f814214ff40042c3f8142100
:100e78004ff48042c3f814214ff40052c3f81421f0
:100e88004ff48062c3f81421994808f0c3fe10f4a7
:100e9800003f40f005810026f6b266e7944b4ff418
:100ea800803159614ff400225a61c3f81411c3f814
:100eb80014214ff48022c3f814214ff40031c3f8f1
:100ec80014115a618a4808f0a5fe10f4803f40f0da
:100ed8001b810026f6b248e7854b4ff00042c3f865
:100ee80094204ff400425a61c3f894203de78048ab
:100ef80008f090fe10f4004f04d17d4b4ff40042ef
:100f0800c3f894207a4b4ff00042c3f894207948f4
:100f180008f080fe0028c0f2b7800026f6b224e769
:100f2800744808f077fe002804db714b4ff4004248
:100f3800c3f894206e4b4ff400425a616c4808f095
:100f480069fe10f4004f40f0a5800026f6b20ce7c9
:100f5800b9f1010f3ff470aea9f102030d2b3ff672
:100f680004af01a252f823f0690d00009d0d0000a6
:100f7800b30d0000c90d0000ef0d0000050e0000c4
:100f8800230e0000410e0000730d0000910e0000ba
:100f9800cd0e0000730d0000170f0000450f000074
:100fa800544808f037fec0f3c0507fe6584608f0b2
:100fb80031fec0f3c03b8ee64e4808f02bfec0f36e
:100fc800c03092e64c4808f025fe10f4006f01d1bd
:100fd800002095e6484808f01dfe10f4805f01d116
:100fe80000208de6444808f015fe10f4004f01d1aa
:100ff800002085e6404808f00dfe10f4804f01d12e
:1010080000207de63c4808f005fe10f4005f01d1a1
:10101800002075e6384808f0fdfdc0f380206fe633
:10102800334808f0f7fd10f4002f01d1002072e6d4
:10103800314808f0effd10f4803f01d100206ae646
:101048002d4808f0e7fd10f4002f01d1002062e6da
:10105800294808f0dffd10f4802f01d100205ae65e
:10106800254808f0d7fd10f4003f01d1002052e6d2
:101078001f4808f0cffdc0f380404ce61d4808f03b
:10108800c9fdc0f3c056d0e61a4808f0c3fdc0f346
:10109800c03643e7174808f0bdfdc0f3c03655e732
:1010a800154808f0b7fd10f4006f01d10026f3e6eb
:1010b800114808f0affd10f4805f01d10026ebe67f
:1010c8000d4808f0a7fd10f4004f01d10026e3e613
:1010d800094808f09ffd10f4804f01d10026dbe697
:1010e800054808f097fd10f4005f07d10026d3e605
:1010f800008000418080004100810041194808f0cb
:1011080089fdc0f38026c7e6174808f083fd10f470
:10111800002f01d10026dde6124808f07bfd10f40f
:10112800803f01d10026d5e60e4808f073fd10f483
:10113800002f01d10026cde60a4808f06bfd10f417
:10114800802f01d10026c5e6064808f063fd10f49b
:10115800003f01d10026bde6034808f05bfdc0f35f
:0c1168008046b7e6008100410080004195
:020000040000fa
:101174002de9f8430446c0ebc0056d01a74e2e448b
:101184004ff6ff71304608f0f6fe012839d1a44b22
:101194005f1997f83d30032b30d8dfe803f00214d1
:1011a40027adc4ebc4059e4b03eb45150321b5f8ed
:1011b400540005f08ff8a865b0f1ff3f1ed001235d
:1011c40085f83d301ae0c4ebc403954a02eb43139f
:1011d400596e384608f06afd80b1c4ebc404904be4
:1011e40003eb4414022384f83d3007e0c4ebc4034a
:1011f4008b4a02eb431393f84c3023b9304608f082
:10120400c5ffbde8f883c4ebc40302eb431300221b
:1012140083f84c20012183f83d10384609f0f9f990
:101224000028eed0c4ebc4037d4a02eb431393f8c9
:101234003e30032b2bd0042b40d003b30020c4eb4f
:10124400c405774b03eb451585f87000002138463b
:1012540009f0dff995f8703095f871209a42cdd0f5
:1012640085f87130012b43d06d4be200111b03eb69
:101274004111002081f8730081f83e00bee7c4eb01
:10128400c402674b03eb4213032283f83e2000237e
:10129400c4ebc402624901eb4212ff21d154013371
:1012a4000a2bfbd10a223946384608f0a7f908b9b7
:1012b4000020c4e7384608f0d1fec0e7002204212c
:1012c400384603f0b1fe08b90020b8e714223946c5
:1012d400384609f099f948b113223946514828444f
:1012e40008f0cafeb0fa80f04009a8e70020a6e79b
:1012f400032285f83d2081e70121384609f089f968
:1013040000283ff47eafc4ebc403454a02eb431309
:1013140093f83f300b2b00f24482dfe813f00c000b
:101324001700320047009500cf00160125019f01e8
:1013340004021b023902c4ebc402394b03eb42130f
:10134400002283f87420012283f83f200023c4eb99
:10135400c402334901eb4212ff21d15401330a2b59
:10136400fbd10a223946384608f048f9002800f033
:101374000881c4ebc4022a4b03eb4213022283f814
:101384003f20384608f06afe40b9c4ebc402244b3f
:1013940003eb4213012283f83f20f2e0c4ebc402c2
:1013a4001f4b03eb4213032283f83f204ff4d57203
:1013b4000221384603f038fea8b197f89d3013f0a7
:1013c400040f31d1c4ebc402154b03eb421393f861
:1013d4009e30aa2b10d0c4ebc402114b03eb421372
:1013e400002283f85020c4ebc4020d4b03eb4213dc
:1013f4000c2283f83f20c4e0094ae02303fb0423c2
:1014040093f89f3003f00f03012be4d1e02303fb97
:101414000423012283f850200ee000bf94b300207f
:10142400c0b2002049b30020c4ebc402d64b03eb86
:101434004213002283f85020c4ebc402d24b03ebc6
:101444004213042283f83f204ff47a71384608f09f
:1014540051fc002858d04ff00009c4ebc403ca4a19
:1014640002eb43184a460f21384603f0ddfd0028fd
:1014740047d098f8502092071221384603f0d4fd43
:1014840000284ad097f89d3013f0010f03d098f844
:101494004d30002be6d0384608f0f5fec4ebc4020c
:1014a400b94b03eb421393f84d306bbbc4ebc4024e
:1014b400b54b03eb4213052283f83f200022102191
:1014c400384603f0b1fd98b1c4ebc403ae4a02eb55
:1014d400431292f8a11092f8a0301b0443ea01636e
:1014e40092f89e100b4392f89f2053ea022318d4db
:1014f400c4ebc402a44b03eb42130c2283f83f2039
:101504003fe0384608f0bffec4ebc4029e4b03eb39
:1015140042130c2283f83f2033e0384608f0b3fe30
:10152400f2e713f0804f984a4ff0e00303fb0423e3
:1015340014bf0122002283f87420c4ebc402924b2e
:1015440003eb4213062283f83f20c4ebc4088e4bfe
:1015540003eb481898f95c20d8f86010384608f076
:1015640048fb072388f83f300121384609f051f839
:1015740048bbc4ebc402844b03eb42130c2283f834
:101584003f200021384609f044f8c4ebc4037e4ae6
:1015940002eb431393f83f300b2b00f00b810c2b21
:1015a4007ff42cae784ae1000b1b02eb43130020be
:1015b40083f8710083f8700083f83e001a46012313
:1015c40082f83d301ae600220321384603f02cfd50
:1015d40020b90021384609f01cf8cae7142239461c
:1015e400384609f011f80028f3d0684b05eb030cda
:1015f400be46bee80f00ccf80000ccf80410ccf8ce
:101604000820ccf80c30def80000ccf810009cf870
:101614000030fe2b08bf0cf1010c9cf8003013f0d5
:10162400c00f29d09cf80720120402f47c129cf805
:10163400083042ea03229cf809301a43013292022c
:10164400c4ebc408504b03eb4818c8f86c200021c5
:10165400384608f0deff082388f83f300121384679
:1016640008f0d7ff68bbc4ebc402474b03eb42133b
:101674000c2283f83f2084e79cf8061001f0030154
:101684009cf8073043ea01219cf80920520002f03b
:1016940006029cf808309b0943ea810301339cf855
:1016a4000a1042ead112023293409cf8052002f05b
:1016b4000f02a2f1090101228a4092b202fb03f255
:1016c400bee700220421384603f0aefc20b9002115
:1016d400384608f09effc6e714223946384608f01b
:1016e40093ff0028f3d0dff8a08005f1890908eb07
:1016f400090ebc46bce80f0048f80900cef80410f7
:10170400cef80820cef80c30dcf80000cef810003b
:101714000021384608f07dffc4ebc40308eb4318ee
:10172400092388f83f3000221121384603f07cfc5d
:1017340040b9c4ebc402144b03eb42130c2283f8ec
:101744003f201ee7c4ebc4020f4b03eb42130a22f3
:1017540083f83f204ff400720721384603f064fcfd
:1017640040b9c4ebc402084b03eb42130c2283f8c8
:101774003f2006e7c4ebc402034b03eb42130b22e6
:1017840083f83f20fde600bfc0b2002035b300203f
:10179400c4ebc4021d4b03eb4213002283f83f2029
:1017a400efe6c4ebc402194b03eb4213002283f8a7
:1017b4003f20e6e6e000031b02eb4313002183f81d
:1017c4007210d96e4ff40077c3f8b870c3f8bc1028
:1017d400c3f8c070c3f8c410c3f8c870c3f8cc1001
:1017e400182183f8a4100121c3f8a810c3f8ac1081
:1017f400c3f8b010b8351544c3f8b45083f8731067
:10180400042583f83e5083f83d10f7e4c0b200206d
:020000040000fa
:1018140020b600201c00000000000000d0b600200c
:101824001000000000000000fcb5002024000000af
:101834000000000008b700201800000000000000ad
:10184400acb800200400000001000000aaaaaaaa63
:10185400acac0020040000000000000000000020e8
:1018640000a00000000000003cb5002004000000bf
:101874000000000040b700200c0000000000000041
:1018840040b4002064000000000000004cb70020b9
:10189400140000000000000058b6002028000000da
:1018a4000000000060b700201000000000000000ed
:1018b40080b60020140000000000000070b7002073
:1018c400040000000000000094b60020280000007e
:1018d4000000000074b700200800000000000000b1
:1018e400b0b8002004000000010000000400000063
:1018f40020b700200c0000000000000040b50020cc
:10190400380000000000000060a600204002000033
:101914000000000010a4002050020000000000009d
:10192400a2b7002002000000000000007cb70020e5
:101934000400000000000000e0b6002010000000d9
:10194400000000009eb7002002000000000000001c
:10195400acaa002000020000000000002cb7002008
:101964000c00000000000000f0b600201000000091
:1019740000000000b0b000201001000000000000d2
:10198400bcb60020140000000000000008a40020e1
:10199400080000000000000080b7002004000000e0
:1019a4000000000000b70020080000000000000054
:1019b40078b500203000000000000000a0b3002033
:1019c400a000000000000000a6b7002002000000f4
:1019d400010000000100000084b7002004000000a2
:1019e400000000009cb7002002000000000000007e
:1019f400b0ac00200004000000000000d4b50020ba
:101a040028000000000000003cb600201c0000007c
:101a14000000000094b8002018000000010000003d
:101a2400d4b500203cb6002014b70020000000000c
:101a3400b0ae002000000000c0b20020e0000000b2
:101a440000000000a4b70020010000000000000016
:101a5400a8b500202c00000000000000f4b4002011
:101a64004800000000000000a5b7002001000000ad
:101a74000000000088b700200400000000000000ff
:101a8400c0b100200001000000000000a0b7002049
:101a940002000000000000008cb7002004000000d9
:101aa40000000000a4b4002050000000000000006a
:101ab400a0a800200c02000000000000a8b700202d
:101ac4006c00000001000000b4b70020b0b7002093
:101ad400b4b70020000000002500000008a000208a
:101ae40000040000000000000000000000000000ee
:101af40000000000000000000000000000000000e2
:101b040000000000fda6000000000000000000002e
:101b14000000000000000000a98400000000000094
:101b240000000000000000000000000000000000b1
:101b34000000000000a000200804000000000000d5
:101b440074b8002020000000010000000100000023
:101b5400030000000000000000000000000000007e
:101b6400000000000000000038b7002038b7002053
:101b7400080000000000000090b7002008000000ea
:101b84000000000014b80020600000000100000004
:101b9400010000000300000000000000000000003d
:101ba400000000000000000000000000a188000008
:101bb400000000000000000000000000d3a60000a8
:101bc400279000000000000000000000000000005a
:101bd4000000000000000000000000000000000001
:101be40000000000000000000000000000000000f1
:101bf40098b700200400000000000000000000006e
:0c1c0400000000006666666666666666a4
:020000040000fa
:101e64002de9f04f83b09d4b1e68197d21b933785d
:101e74004bbb03b0bde8f08f3378002b40f0e28118
:101e840030460022531cdbb29942f2d010f8284f9e
:101e94000cb91a46f6e70232d2b2012a00f0d38115
:101ea4008e490a75ff2be4d003eb8303dc0035195c
:101eb4006b79012b09d02b7b042bdad8dfe803f0f4
:101ec4000a1d2e4f7f000b46eee72b7b042b10d010
:101ed40000232b7395f82030012b00f08781002319
:101ee400335585f820306b71ab70eb706b702b71d0
:101ef400bfe77a4b00225a75eae7ab685b6a0321b5
:101f0400e88898476861b0f1ff3fb2d0ab681b69bd
:101f14002a467349984702232b73aae7ab681b68c8
:101f24006869984768b195f8203033b9ab685b6845
:101f340068699847686203232b73012385f820306e
:101f440097e795f82030012b03d0002385f8203043
:101f54008fe7284608f002f900232b71f5e75f4b61
:101f64005b7d002b85d15d4b01225a756b6a1b6921
:101f74001b68b3f5007f3abf4ff40076b6fbf3f667
:101f84000126564c4ff400720021206908f0a8fa8b
:101f9400022385f821306869ab6800969e680023a7
:101fa400226905f11c01b047eb69b3f1ff3f02d090
:101fb40004232b735de7494b00225a7559e795f9c1
:101fc4002130022b06d06bb1444b00225a750323f7
:101fd4002b734ee7ab68db6a002b3ff44aaf2869ea
:101fe400984746e73d4b1c6900236b7094f8fe311b
:101ff400552b6cd04ff0000847464ff0ff09374b84
:102004005c682378002b5cd1344bd3f810a02b7977
:1020140001332b712a7e334b53f822b0584608f013
:1020240067fac6b232465946a01c08f0e7f9aa7806
:10203400a3199a70731c54fa83f32a7930329a7074
:10204400b31c54fa83f300229a70a56184f80190ba
:1020540067b317f0010f00f0b3801746b9f1ff0f13
:1020640024d0214b33f817301af8032062709a44b5
:102074009af80b209af80a301b0403eb02639af8cf
:10208400082013449af8092003eb022363619af8a9
:1020940007209af806301b0403eb02639af8042025
:1020a40013449af8052003eb02232361b8f1000fcf
:1020b40000f096800d4bea781a7001375f700123a7
:1020c4002370064b00225a7502232b73d1e694f831
:1020d400ff31aa2b0cd04ff000088de794b80020f4
:1020e4005997000030a30000a8a600009cb7002068
:1020f4002378eb2b2bd094f8c20107f030fe002894
:102104004cd16b7800276b7094f8d20107f027fe4e
:1021140020b147f002076b7801336b7094f8e20149
:1021240007f01dfe002840d047f004076b78013308
:102134006b7094f8f20107f012fe90b347f00807b1
:102144006b7801336b704ff00108c14657e7637831
:102154003c2b03d0582b01d0fe2bccd1a378902b51
:10216400c9d101236b7094f85230462b42d094f8b5
:102174005330412b44d094f85430542b46d094f827
:102184003630462b48d094f83730412b4ad094f857
:102194003830542b4cd04ff000082de701231f4654
:1021a400b1e74ff00108c14629e794f8f20107f0be
:1021b400d6fd0028c2d1002f40d14ff001081be703
:1021c40017f0020f01d0012748e717f0040f01d0e0
:1021d400022743e707f00807002f18bf03273de74e
:1021e4001b4bea781a7000225a7068e7284607f0f9
:1021f400b5ff74e64ff0000847464ff00b09fee6c2
:102204004ff0000847464ff00b09f8e64ff000087e
:1022140047464ff00b09f2e64ff0000847464ff0ef
:102224000609ece64ff0000847464ff00609e6e6db
:102234004ff0000847464ff00609e0e64ff001086a
:10224400c146dce60023034a002111752ce600bfd9
:082254009cb7002094b80020a3
:020000040000fa
:10225c002de9f04f89b081468846036803930b78cb
:10226c002f2b05d05c2b03d0039b9b6983600ae06a
:10227c004346984613f8012b2f2afad05c2af8d043
:10228c000023c9f8083098f800301f2b04d9b84b3c
:10229c000c330093474616e1802389f82f30002138
:1022ac00484604f097fd034686e1fe2c00f2ad8013
:1022bc0025f81460013407a807f0fafbb0f1ff3fd2
:1022cc0000f0a380b0f5803f03d3030c25f8143045
:1022dc00013486b21f2e21d92f2e0cd05c2e0ad0a1
:1022ec007f2ee2d83146009808f044f80028dcd064
:1022fc008be001330793079b1a782f2af9d05c2abd
:10230c00f7d01f2a8cbf00260426079f012c07d06c
:10231c00022c1bd00cb305eb440222e00426f4e79c
:10232c002b882e2bf7d1002325f8143009f123022a
:10233c009c428cbf2e21202102f8011f01330b2b54
:10234c00f6d146f0200689f82f609de06b882e2b85
:10235c00e1d12b882e2bded1e5e7ab4652e0013cd8
:10236c004fd032f8023d202bf9d02e2bf7d0600045
:10237c00002325f81430002c47d02a88202a46d177
:10238c002946013331f8022f202afad0002b3fd0f6
:10239c0046f00306f6b2811e6a18695a2e2905d03a
:1023ac00013c03d032f8021d2e29f9d14ff0203117
:1023bc00c9f82410c9f82810c9f82b104ff00808d8
:1023cc000022019202926a4a18320492a34603f147
:1023dc00010a35f8134084b3202c1ed02e2c1ad0b1
:1023ec00019b43451ed2da4500f0f2807f2c7dd84c
:1023fc002146049807f0beff002800f0ae80059639
:10240c0086e0ab460023abf800300623d4e0002373
:10241c002e2ac0d1bce7da45e2d046f00306f6b26c
:10242c005346d4e7b8f10b0f53d0da4500f0d48003
:10243c0046f00306f6b240f2cf8099f82430e52b33
:10244c0050d0b8f1080f00f0a680029a02f00c03ed
:10245c000c2b03d002f00303032b02d146f002062f
:10246c00f6b216f0020f0dd1029b13f0010f1cbf38
:10247c0046f01006f6b2029b13f0040f1cbf46f098
:10248c000806f6b289f82f60484601f081fc99f8ed
:10249c002f200346002840f0838012f0040f40f0f8
:1024ac008b8099f8063013f0100f00f08f80039892
:1024bc0000f14001d9f81430c3f30803194407f0b4
:1024cc008bfcc9f808000797d9f80030dd680024a8
:1024dc00f1e646f00306f6b299f82430e52bb4d1b8
:1024ec004ff00b08052389f82430aae746f00203c5
:1024fc00dbb2059340f2b511204606f047fd0446c9
:10250c0010f0800f11d000f07f041a4b1c5d14bb2f
:10251c00059b43f00306f6b2019b5f245a1c019203
:10252c004b4483f82440534651e7ff28efd908f178
:10253c00ff33019a9a4207d2019a531c4a44010a6a
:10254c0082f82410059ee9e746f00306f6b25346de
:10255c00cdf804803be7059e4ae7a4f141039bb20a
:10256c00192b09d8029b43f002030293019bd5e778
:10257c00088b00003c7d0000a4f161039bb2192b79
:10258c0007d8029b43f001030293203ca4b2019ba9
:10259c00c4e7019bc2e7029b9b00dbb2029354e7aa
:1025ac00042b09d112f0200f0ad012f0040f8ad09c
:1025bc00802389f82f300023184609b0bde8f08f2e
:1025cc0002f00402002a08bf0523f5e70523f3e710
:1025dc00b8f10b0f3ff47daf029b9b00dbb2029373
:0c25ec005b464ff00b0808220192f0e65d
:020000040000fa
:1025f8002de9f04f85b00e46154600230b6005f017
:10260800dbffb0f10008c0f21981a34b53f8284052
:10261800002c00f01881346005f0fe05237873b1b2
:10262800607808f060f810f0010f08d1002d00f074
:10263800068100f00405002d18bf0a25ffe00023dd
:102648002370607807f032ff10f0010740f0fd803a
:102658001db110f0040f40f0fa80904b03eb4808ce
:1026680098f801600021204603f0b0fb022801d051
:102678002dd896b3042e00f20c8104f2062504f23c
:102688004629e846284607f0c5fd48f8040b1035ea
:102698004d45f7d13eb1751e0deb85050df11008be
:1026a8004ff003090be03546f6e7204603f08efbb2
:1026b8006eb9012801d810e04846a84507d055f85a
:1026c800041b0029f1d1002ef6d00d25b7e004280f
:1026d80000f0bf80012800f2be8094f84c2094f8e6
:1026e8004b3043ea02231bb2b3f5007f40f0b580bc
:1026f80094f8575094f8563053ea052504d104f15c
:10270800640007f087fd0546d4f83490256294f8f4
:102718005060e670731edbb2012b00f2a08094f8c3
:102728004d801ffa88f36381002b00f09a8008f12e
:10273800ff3313ea080f40f0968094f8523094f86b
:1027480051a04aea032a0ffa8afa1ffa8afba4f868
:1027580008b01bf00f0f40f0888094f8543094f8bc
:10276800530050ea032003d104f1600007f052fd42
:1027780094f84f2094f84e3053ea022277d005fba4
:1027880006fc02eb1b136344984272d3c01ab0fbd9
:10279800f8f140456fd34248814200f289804ff6f4
:1027a800f570814288bf4ff0030800f2838040f63d
:1027b800f570814288bf4ff002087ed88e1ce66112
:1027c800c4f824904a44a2624b442363bbf1000f2f
:1027d8005bd06244e2624ff0010806eb460206f065
:1027e800010303eb520303f2ff13b5eb532f4ad354
:1027f8004ff0ff33636123618023637184f80080a5
:10280800284a138801339bb21380e380264be36088
:102818000023a361254b1b689c420bd03d460ee06c
:10282800bbf1000f2dd06244e262b8f1020fd4d19f
:102838007300d8e71d4b00221a60efe70b252846e6
:1028480005b0bde8f08f0c25f9e70325f7e70a2561
:10285800f5e70125f3e70d25f1e70d25efe70d2550
:10286800ede70d25ebe70d25e9e70d25e7e70d2554
:10287800e5e70d25e3e70d25e1e70d25dfe70d2564
:10288800dde70d25dbe70d25d9e70d25d7e70d2574
:10289800d5e70d25d3e700bf7cb700209cb7002003
:1028a800f5ffff0f9eb70020acaa0020e0b600207d
:1028b8004ff00008b8f1000fe9d08e1ce661c4f8ab
:1028c80024904a44a2624b442363b8f1030fa7d172
:1028d80094f86b2094f86a3043ea02231ffa8afac4
:1028e8005aea0303c9d104f16c0007f093fce062d3
:1028f800b30003f2ff13b5eb532fc0d34ff0ff33f0
:10290800636123618023637194f8712094f87030b7
:1029180043ea02231bb2012b7ff470af09f10101d6
:10292800204606f0c3fc00287ff468af00236371db
:1029380094f83f2294f83e3243ea02231bb20f4a2e
:1029480093427ff45baf04f1400007f063fc0c4b4b
:1029580098427ff453af04f5097007f05bfc094b0c
:1029680098427ff44baf04f50a7007f053fc60619e
:1029780004f50b7007f04efc20613fe755aafffff6
:0829880052526141727241617b
:020000040000fa
:102990002de9f04f9db004460e46174600218df8f4
:1029a000231048220aa807f09dfd0994e94607e193
:1029b000013609a806f05ffc02e18846b1780336cb
:1029c0004ff0000e0fe1b17803364ff020084ff0c2
:1029d000020e08e1a1f13003dbb2092b88bf00250c
:1029e00000f20881002505eb850501eb4501a1f109
:1029f000300516f8011ba1f13003dbb2092bf2d927
:102a0000f8e031782a2904d157f8044b717802365e
:102a1000f5e00136a1f13003dbb2092b88bf0024b9
:102a200000f2ed80002404eb840401eb4401a1f1e9
:102a3000300416f8011ba1f13003dbb2092bf2d9e7
:102a4000dde057f8041bc9b209a806f014fcb7e092
:102a5000bb465bf8047b07b3397809b33b46c7f143
:102a6000010000eb030a13f8012f002af9d1002c12
:102a700002dba24528bfa2461ef0020f13d1554526
:102a800007d9414609a806f0f6fb0af1010a5545a7
:102a9000f7d1397841b95f4692e00df12307dbe7c2
:102aa0004ff0000ae3e759b1b8464cb109a806f067
:102ab000e2fb18f8011f19b1a4eb0803df42f5d1be
:102ac0000af1010455450bd9202700e01c46394680
:102ad00009a806f0d0fb631ca542f7d15f466fe062
:102ae0005f466de009a806f0c6fb69e00a2000e039
:102af00010201ef0040f00f0e68057f8042b642924
:102b000004d1002abcbf52424ef0010e78290cbffe
:102b10004ff0270b4ff0070bcc464ff0000a03e0b5
:102b200057f8042bede7a246b2fbf0f100fb1123ae
:102b3000dbb2092b84bf5b44dbb20af10104303302
:102b40000cf8013b904204d80a46202cebd14ff000
:102b50001f0a1ef0010f06d01cab1c442d2304f8e5
:102b6000703c0af102041ef0020f0dd1ac420dd2ee
:102b7000a246414609a806f07efb0af1010a554526
:102b8000f7d1013c4c4404e0a246fae7a246f8e73c
:102b90004446a04618f8011909a806f06cfb4c45fc
:102ba000f6d10af1010455450ad94ff0200800e09a
:102bb0001c46414609a806f05efb631ca542f7d1fe
:102bc0003178002900f0858025297ff4f1ae7178f5
:102bd00030293ff4f2ae2d293ff4f5ae02364ff026
:102be00020084ff0000e2a297ff4f4ae57f8045b5a
:102bf00016f8011b2e293ff404af4ff0ff346c2967
:102c000004bf4ef0040e16f8011b002961d0a1f19b
:102c10005803202b3ff666af01a252f823f000bf05
:102c2000f12a0000e52a0000e52a0000e52a00005c
:102c3000e52a0000e52a0000e52a0000e52a000058
:102c4000e52a0000e52a0000b72c0000432a000016
:102c5000ed2a0000e52a0000e52a0000e52a000030
:102c6000e52a0000e52a0000e52a0000e52a000028
:102c7000e52a0000e52a0000e52a0000a52c000056
:102c8000e52a0000e52a0000e52a0000512a00009c
:102c9000e52a0000ed2a0000e52a0000e52a0000f0
:102ca000f12a00001ef0040f01d108200ee057f8b1
:102cb000042b08202ae71ef0040f03d057f8042b3a
:102cc000022023e7022064293ff42aaf57f8042b9f
:102cd0001ce709a806f0a2fb1db0bde8f08f00bffd
:020000040000fa
:102ce0002de9f04f85b00e469146984606f030f932
:102cf000054616b14ff0ff333360002d00f07981a7
:102d00002c780194c4ebc402be4b03eb421393f83e
:102d10007330002b00f06f81b8f1000f00f070816c
:102d20000f9b002b00f07281b9f1000f66d10e9a53
:102d30009918c4ebc403b34a02eb4313d3f8bc3075
:102d4000994200f26581c4ebc40b4fea4b1bad4bbb
:102d500003eb0b0a0121504607f05dfc07460028f3
:102d600000f04a81a84b5b4402934ff6ff7118466e
:102d700007f003f9012858d1e6b1c4ebc403a14a16
:102d800002eb4313022283f83020998e2a78120234
:102d900042ea01429a6332609b8e01339bb24ff646
:102da000ff72934208bf0123c4ebc402954901ebb3
:102db00042129386b9f1000f40f08a800f9b022bdc
:102dc00034bf4ff008094ff00909c4ebc4038d4a22
:102dd00002eb431393f8743013b90e9b5b020e930e
:102de0000e9a4946504602f021f900283bd09af845
:102df0009db0bbf1000f36d100272de00f9b0e9a3e
:102e00009918c4ebc4037f4a02eb4313d3f8c430d0
:102e1000994200f2ff80c4ebc40302eb431393f822
:102e20007230002b8fd00027e6e00021504607f0db
:102e3000f2fb0027e0e04146504607f0a9fb90b1c5
:102e400002225146504607f0e1fb60b108f50078d8
:102e500001370f9bbb4220d0fa22fe21504604f0de
:102e600075fc0028e7d14ff0010b00273eb1c4eb01
:102e7000c404644b03eb4414002384f830306b68c3
:102e80001bb1aa68314658469847029807f080f966
:102e90000021504607f0bffbaee0b9f1090f0fd09b
:102ea000c4ebc4035b01574aff21d15401225146b0
:102eb000504607f0a6fb071e08bf4ff0010bd5e7f1
:102ec00000220521504602f0b1f80028e8d1cae7f7
:102ed0000f9b022b34bf0a230b230393c4ebc403c1
:102ee000484a02eb431393f8743013b90e9b5b020c
:102ef0000e930e9a0399504602f098f8002847d096
:102f00009af89db0bbf1000f42d10027019bc3eba3
:102f1000c3023c4b03eb4219cdf804b0ddf80cb012
:102f200027e04146504607f02dfb88b3ff2389f880
:102f3000003089f8013002225146504607f061fb0b
:102f400030b301225146504607f060fb00b399f8b8
:102f5000003003f01f03052b1ad1fa22ff2150463f
:102f600004f0f4fba0b108f5007801370f9bbb42d9
:102f700012d0bbf10a0f0cbffe236ff0030389f8d8
:102f8000003001225146504607f03bfb0028c8d1d3
:102f90004ff0010b002769e7ddf804b0039b0b2b12
:102fa00010d0c4ebc4035b01164aff21d1540122a7
:102fb0005146504607f025fb0746002f08bf4ff04b
:102fc000010b53e70f4ac4ebc4035b01d118fd208a
:102fd000d054ff234b7002225146504607f011fb9c
:102fe0000028d5d0fa22ff21504604f0affb074657
:102ff000e3e7002700e00027384605b0bde8f08f82
:103000000027f9e7c0b2002094b300200027f3e7bf
:083010000027f1e70027efe7bc
:020000040000fa
:103018002de9f04f099f154604468e461e46002ba3
:1030280040f0cc808a42b2fa82fc4cd9bcf1000f45
:103038000bd0ccf1200801fa0cfe20fa08f802faad
:103048000cf548ea0e0e00fa0cf44fea15491ffa7f
:1030580085f8befbf9fa210c09fb1ae30afb08fb09
:1030680041ea03439b452ad9eb180af1ff3004d201
:103078009b4502d9aaf102002b44a3eb0b03a4b28f
:10308800b3fbf9f209fb123302fb08f844ea0344e4
:10309800a04516d92c1902f1ff3303d2a04501d956
:1030a800931e2c44a4eb080443ea004027b124faf9
:1030b8000cf400233c607b603146bde8f08f50463d
:1030c800dbe71346eee702b9ffdebcf1000f2ed1b5
:1030d8008b1a01264fea154eaab2b3fbfef8210c53
:1030e8000efb183308fb02f941ea0343994561d9fd
:1030f800eb1808f1ff3004d2994502d9a8f1020073
:103108002b44a3eb0903a4b2b3fbfef10efb11336e
:103118004a4344ea0344a2424ed92c1901f1ff3331
:1031280003d2a24201d98b1e2c44a41abce7ccf1cd
:10313800200e02fa0cf521fa0ef901fa0cf320fa26
:103148000efe4eea03034fea154800fa0cf4b9fbe9
:10315800f8f11ffa85fe08fb1192180c01fb0ef618
:1031680040ea0242964221d9aa1801f1ff3003d25f
:10317800964201d9881e2a44921b9bb2b2fbf8f9e9
:1031880008fb192209fb0efe43ea02439e450fd9ac
:10319800eb1809f1ff3604d29e4502d9a9f10206bf
:1031a8002b44a3eb0e0346ea004693e70846e3e701
:1031b8004e46f6e74046a4e70b46b6e78b4206d9eb
:1031c800002f7ed00026c7e90001304674e7b3fa25
:1031d80083fcbcf1000f0fd18b4201d3824209d886
:1031e800841a61eb030e0120002f6dd0c7e9004e51
:1031f800002661e76046f7e7ccf1200e03fa0cf3ee
:1032080022fa0ef521fa0ef41d4301fa0cf320fa06
:103218000ef10b434fea154a00fa0cf6b4fbfaf923
:103228001ffa85f80afb19401c0c09fb08f144ea4f
:103238000044a14202fa0cf23fd92c1909f1ff30df
:1032480004d2a14202d9a9f102002c44641a9bb20b
:10325800b4fbfaf90afb194409fb08f843ea0441ec
:1032680088452cd9691809f1ff3304d2884502d959
:10327800a9f10203294443ea0040a1eb0801a0fb9d
:1032880002894945c2464c4602d306d1464504d276
:10329800b8eb020a69eb05040138afb1b6eb0a03d3
:1032a80061eb040606fa0efe23fa0cf34eea03035a
:1032b80026fa0cf6c7e900369ae74846c6e74b46b1
:0c32c800d9e73e463846f7e63e46f5e6fc
:020000040000fa
:1032d4002de9f04f89b090f82fb01bf0a00f40f00b
:1032e400fb80d0f80090d9f80c301a881ab3002764
:1032f400013733f8022f002afad1064605ab0246fd
:1033040052f8240f5168926807c31bf0010f00f0b4
:103314008180402386f82f3006f1240405ab03cbcb
:10332400706261601a889b782281a37201252b4602
:103334004ff07e0a02e00027dfe72b460df1130c65
:10334400072200e0734603f00f0000f130014fea5a
:10335400131e392988bf00f137010cf80119013a0d
:1033640000f0de800f2bedd808ab134403f814ac47
:1033740096f82430202b08bf002308d021460023d0
:1033840001339a4203d911f8010f2028f8d1013be7
:10339400234407e02021581c597002331b1b072bc0
:1033a40008d80346072af5d808a9114411f8141cb3
:1033b4000132f0e7304600f0effc804620bb0135d7
:1033c400642d4ad0d9f80c2005ab03cb2060616092
:1033d40019889b782181a372052daed9901e2b46a6
:1033e40030f8022f002aa9d0102102f0010c0cebb6
:1033f4004303520813f4803f1cbf83f4883383f0e3
:1034040021030139f1d1ebe7642d6bd0042865d198
:1034140086f82fb01bf0020f00f086800c37564c54
:10342400a4fb0734a408611c304605f041fb804628
:10343400002853d10c2f7ed97169a1eb4411304679
:1034440003f0ccfc8046002848d106f1240006f0a5
:1034540074fd0090002301931ae04ff007083de04b
:10346400384649e04ff6ff72934202d03ef81030de
:103474000bb94af0400a81f800a0012389f804300e
:103484000021304603f0b8f9804638bb013c52d0e5
:10349400f169484605f00cff8046f8b9d9f80ce00c
:1034a400316a5ffa84fa009b4b734ff00f03cb72bf
:1034b4004ff000030b738b76cb760af1ff3000ebf1
:1034c400400300eb83002d4a02f10d0c019b4ff6e3
:1034d400ff754ff0ff0812e04ff00608404609b0b0
:1034e400bde8f08f4ff00708f8e7177801eb070bfa
:1034f40001f807808bf8018001326245b2d0ab42fb
:10350400f3d0471c3ef81030107801eb000b0b543d
:10351400180a8bf80100002ba2d138462b46ebe7a2
:103524008df80ca0134632e70121304605f0c0faad
:1035340080460028d2d1f169484605f0b9fe80469c
:103544000028cbd120220021306a06f0c9ff326a5c
:10355400334653f8240f59681060516019899b7ad7
:1035640011819372326a96f82f3003f018031373a3
:10357400012389f80430b1e74fecc44e74a4000071
:020000040000fa
:103584002de9f04790b00191002800f0ee80044648
:10359400154602f03f073a4602a901a8fff72af8a8
:1035a400064628b100232360304610b0bde8f087fa
:1035b400029b0393019903a8fef74efe03460028dd
:1035c40040f0fc809df93b30002bc0f2e28037f0e4
:1035d400010314bf0121002103a804f0c1ff034625
:1035e40015f01c0f40f0ed80002840f0d0809df8cd
:1035f400123013f0100f40f0c28015f0020f03d008
:1036040013f0010f40f0bd8015f0080f01d047f012
:103614004007029b5b6b63620b9ba36237f0010361
:1036240014bf0121002103a804f0a2fd2061002899
:1036340000f09d80ddf808a0ddf82c80414650465e
:1036440006f0cefb0546a06008f11c0006f0e4fd80
:103654008046e060c4f800a0baf80630a38027755d
:10366400002161752162a16104f130094ff40072f7
:10367400484606f035ff17f0200f95d0b8f1000f3b
:1036840092d0c4f81880baf80a707f02b84500f2e4
:103694008780e561c8f30803002b85d0029f294683
:1036a400384606f0c4fd002852d1022663e0042bfc
:1036b40040f082804b4b1b680bb1122672e703a8c3
:1036c400fff706fe00285ed147f0080717f0080f41
:1036d4009fd006f07bfa054601460b980e3006f0a3
:1036e400bffe29460b98163006f0bafe029dddf89f
:1036f4002c804146284606f073fb8146202388f837
:103704000b3000220b99284606f0d1fc00210b98bf
:103714001c3006f0a5fe029b01221a71b9f1000fbc
:103724003ff475af5d6b0022494603a803f079ffaf
:1037340008b1064636e72946029805f0b9fd09f1b5
:10374400ff33029a136100283ff461af064629e76c
:1037540000eb5822226201234946787806f09af851
:1037640000283ff421af012605e009261ce70226c4
:1037740018e70226e561206905f0a4ff12e7042694
:1037840010e707260ee706460ce707260ae7064673
:1037940008e7062606e7a8eb07084745bff479af14
:1037a4002946204602f05aff05460128e1d9b0f126
:1037b400ff3ff0d10126dde71e46f3e615f01c0fae
:1037c4000dd0002b7ff473af9df8123013f0110f5e
:1037d400dbd115f0040f3ff479af0826e2e6064684
:0837e400e0e600bfe0b60020a2
:020000040000fa
:1037ec002de9f84307460e4698469500284604f006
:1037fc00d7f9002800f0c9808146542004f0d0f994
:10380c000446002800f08c805422002106f064fe4f
:10381c00c4f830902a46a521484606f05dfe043dca
:10382c00236b1d4425f007058eb1337884f83430b2
:10383c0053b1334604f134010f3613f8012f01f85c
:10384c00012f0ab1b342f8d1002384f84330089b0e
:10385c00042b28bf04239946e3626364261d30467b
:10386c0006f028ff04f1180006f024ff2461c9f1ca
:10387c000503a361646242463946284605f0aeff53
:10388c002060099b03b11c6006f096fa434a13684a
:10389c0001331360424b1b68002b47d0414b1b6814
:1038ac003bb93f4b1b68da6ae36a9a429cbf3c4bbc
:1038bc001c603d4a136801331360e36a3b49086896
:1038cc0001229a4002430a60394a03eb830302eb5c
:1038dc0083035b68a3609968e1604e609e60e06a58
:1038ec00830019188900551865615158013103443a
:1038fc009b00d15006f0f8fc2a4b1b68002b48d0db
:10390c00274b1b68da6ae36a9a4244d2294b4ff080
:10391c0080521a60bff34f8fbff36f8f012036e0d8
:10392c00484604f0e8fb4ff0ff3030e01c4b1c60c5
:10393c001368012bbdd11e4d284606f05efc05f127
:10394c00140006f05afc05f1280006f056fc05f1af
:10395c003c0006f052fc05f1500006f04efc164ff0
:10396c00384606f04afc154d284606f046fc14482d
:10397c0006f043fc134806f040fc134806f03dfcef
:10398c00124b1f60124b1d6093e74ff0ff30bde8e8
:10399c00f8830120fbe70120f9e700bf4cb70020ba
:1039ac0040b7002070b7002058b700205cb700204b
:1039bc0040b4002004ed00e058b600206cb60020a6
:1039cc0080b60020a8b6002094b6002044b7002092
:0439dc0048b70020c8
:020000040000fa
:1039e00061001a03e0001703f8000703ff0001005d
:1039f00078010001300132010601390110014a014c
:103a00002e017901060180014d00430281018201ee
:103a100082018401840186018701870189018a016d
:103a20008b018b018d018e018f019001910191011c
:103a300093019401f60196019701980198013d02c6
:103a40009b019c019d0120029f01a001a001a201f8
:103a5000a201a401a401a601a701a701a901aa012d
:103a6000ab01ac01ac01ae01af01af01b101b201dc
:103a7000b301b301b501b501b701b801b801ba018d
:103a8000bb01bc01bc01be01f701c001c101c20103
:103a9000c301c401c501c401c701c801c701ca01ee
:103aa000cb01ca01cd011001dd0101008e01de0153
:103ab0001201f3010300f101f401f401f8012801fe
:103ac000220212013a020900652c3b023b023d0230
:103ad000662c3f0240024102410246020a015302a3
:103ae000400081018601550289018a0158028f0137
:103af0005a0290015c025d025e025f029301610264
:103b000062029401640265026602670297019601ef
:103b10006a02622c6c026d026e029c0170027102dc
:103b20009d01730274029f01760277027802790286
:103b30007a027b027c02642c7e027f02a601810253
:103b40008202a9018402850286028702ae01440234
:103b5000b101b20145028d028e028f0290029102e4
:103b6000b7017b030300fd03fe03ff03ac03040066
:103b70008603880389038a03b1031103c203020089
:103b8000a303a303c4030803cc0303008c038e0325
:103b90008f03d8031801f2030a00f903f303f403b7
:103ba000f503f603f703f703f903fa03fa03300406
:103bb000200350041007600422018a043601c10466
:103bc0000e01cf040100c004d004440161052604a5
:043bd000000000bf32
:020000040000fa
:103bd4002de9f04f87b004468846164699460023df
:103be400c9f80030039005a905f0f8f90190002800
:103bf40045d1637d0193002b41d1237d13f0020f46
:103c040000f0c680a369f34200d3de43002e00f027
:103c1400ba8004f13003029390e0e169039802f062
:103c240047f8002800f0af8001282cd0b0f1ff3f06
:103c34002dd0e061a36803b9a06094f91430002b7f
:103c440029dbddf814b0e169584606f0f0fa824643
:103c540090b3ba44b6f5007f45d3750abbf80a3071
:103c64007a199a4288bfdd1b2b46524641469bf87f
:103c7400010005f057fd18b3012363750193019802
:103c840007b0bde8f08f022363750193f7e70123c2
:103c940063750193f3e70123226a0299059840783a
:103ca40005f040fd20b9237d03f07f032375c8e7a9
:103cb400012363750193e2e7022363750193dee751
:103cc400216aa1eb0a01a94201d36d0226e04ff457
:103cd400007208eb4121029806f090fb237d03f06b
:103ce4007f032375f1e7236a534503d0a269e36890
:103cf4009a423bd3c4f820a0a069c0f30800c0f5e1
:103d04000075b54228bf35462a464146029b1844f1
:103d140006f074fb237d63f07f032375d9f800302c
:103d24002b44c9f80030a844a3692b44a361e2687a
:103d3400934238bf1346e360761b24d0a369c3f3d0
:103d44000802002ad8d1059a5789013f17ea532758
:103d54007ff473af002b7ff460afa06800287ff47a
:103d640063af0021039801f0a3ff5ae701235246f1
:103d740002999bf8010005f08dfd0028bad00123bb
:103d8400637501937be7237d43f04003237576e756
:063d94000723019373e711
:020000040000fa
:023d9a00704770
:020000040000fa
:103d9c002de9f04f87b00446d0f800b0002103f0b5
:103dac0019f80546002840f0b6804ff0ff33236326
:103dbc004ff0ff08c1461f460ae027634ff0ff098a
:103dcc000021204602f014fd0546002840f0a38097
:103ddc00e169584605f068fa0546002840f09b80da
:103dec00266a3578002d00f09580f37a03f03f02b7
:103dfc00a271e52de1d013f0080f15d00f2adcd1fc
:103e0c0094f82f3013f0400fdad115f0400f26d074
:103e1c0096f80d8005f0bf0563692363737b4345fa
:103e2c0023d04ff0ff09cbe70f2ae9d0b9f1000fef
:103e3c0004d1304606f07df8404570d094f82f50f0
:103e4c0015f0010507d10b2204f12401304606f0d0
:103e5c000ff900285fd027634ff0ff09b0e7a945a1
:103e6c0018bf4ff0ff09abd1d8e7f27eb37e53ea0f
:103e7c0002235bd1dbf80c000590337803f03f0391
:103e8c00013b03eb430203eb8203dff8c4a00121e7
:103e9c00cdf80480cdf808b00495984603940446f8
:103eac0006e04ff6ff739d4249d1284b53451ad07b
:103ebc001af8013bf2185278f55c45ea0225002904
:103ecc00efd0b8f1ff0f2cd8284602f0d1fe834674
:103edc0008f1010934f8180002f0cafe834528d114
:103eec002946c846e1e7ddf808b0049d4246ddf8f6
:103efc000480039c337813f0400f04d019b1059b58
:103f0c0033f812301bb9013d5ffa85f958e74ff0d1
:103f1c00ff0955e70425284607b0bde8f08f4d464c
:103f2c00f9e7ddf80480ddf808b0039c4ff0ff09d9
:103f3c0046e7ddf80480ddf808b0039cf6e7ddf811
:103f4c000480ddf808b0039cf0e700bf81a40000fa
:043f5c0074a4000049
:020000040000fa
:103f60002de9f04f85b0019001a805f045f9002832
:103f700003da002005b0bde8f08f019b1b095d1e30
:103f8000202d0fd9023b5b4ab3f5007f35bf02eb12
:103f9000d30302ebd31313f8045c13f8045c34bfaf
:103fa000013511350123a5f12001c5f1200203fae5
:103fb00001f923fa02f203fa05f849ea0209d8f1f5
:103fc00000084d4f69eb4909d7e9002302ea080ac6
:103fd00003ea090b5aea0b0342d1019b03a81033f1
:103fe000039306f068f918b9444b0c221a60c1e734
:103ff000d7f80852a84206d0039b103b0393012335
:1040000000f110058360039bea18012143f00103ce
:10401000b5f1080442f8083c42f8041cc7f808222d
:1040200045f8043ca5d0204605f0aefb88b155f814
:10403000083c55f8041c23f00103e31a5a6822f0e7
:1040400001020a445a6055f8041c21f00101625033
:104050001c462046019905f0edfa04f1080089e7b5
:104060005046244a264bbaf1000f34d1cbf100015f
:1040700001ea0b014b4302ebd36393f83c6020361b
:10408000304605f01fff731c57f8334007ebc3039e
:10409000083b9c4298d0272e26dd0235ae4201dc3b
:1040a0003f2e21d16168019a21f001018d1a284625
:1040b00005f0eef9864217d1a318e068a668d8602b
:1040c0009e608360986842f00102c360c3e90025e6
:1040d00065506260bde7caf1000101404b4302eb4d
:1040e000d36393f83c60cbe73146204604f07cfb79
:1040f000afe700bf44880000a0a8002094b70020cc
:0441000029e66b073a
:020000040000fa
:104104002de9f04f87b005468846144699460023aa
:10411400c9f80030029005a904f060ff009000285f
:1041240040f09d806b7d0093002b40f098802b7da8
:1041340013f00103039300f0ac80ee68ab69f61a48
:10414400a64228bf2646002e00f0898005f13003e0
:1041540001934fe0e969029802f080fa58e00223e3
:104164006b7500937be001236b75039b009376e0f2
:1041740002236b75009372e095f91430002b01db78
:1041840064022ce0286aa0eb0a00a042f8d24ff4a3
:104194000072019908eb402006f030f9f0e72a6a32
:1041a40052450cd095f91430002b5cdb01235246a8
:1041b40001990598407805f06dfb002864d1c5f895
:1041c40020a0a969c1f30801c1f50074b44228bf55
:1041d40034462246019b1944404606f00ff9d9f8ab
:1041e40000302344c9f80030a044ab692344ab61d8
:1041f400361b34d0ab69c3f30802002ae1d1059a17
:104204005789013f17ea532708d1002ba2d1a86888
:104214000128a4d9b0f1ff3fa5d0e861ddf814b0be
:10422400e969584606f003f882460028a0d0ba444b
:10423400b6f5007fb3d3740abbf80a303a199a4230
:1042440088bfdc1b2346524641469bf8010005f01b
:1042540021fb002890d001236b75039b00930098e9
:1042640007b0bde8f08f012301999bf8010005f028
:1042740059fa20b92b7d03f07f032b7596e70123b0
:104284006b75039b0093eae701236b75039b009313
:08429400e5e707230093e2e7d0
:020000040000fa
:10429c002de9f84f584b1b68002b40f0a780574b6b
:1042ac001c6801341c60b4b1554b1b68a3421fd968
:1042bc000020544b1b68db6a03eb83039b00524ac0
:1042cc00d358022b28bf0120504b1b68002b18bf62
:1042dc000120bde8f88f4e4a11684e4b18681060eb
:1042ec0019604d4a13680133136005f0b9fbdbe725
:1042fc00002047498346494d4ff0010e424adff8f2
:10430c0004c137e03e4b4ff0ff321a60d1e73c4b13
:10431c001e60cee7de6ad5f800a00efa06f848ea71
:10432c000a08c5f8008006eb860602eb860676685e
:10433c009e60d6f80880c3f80c80c8f80490c6f8c4
:10434c000890d3f82c904fea890606eb090802eb8b
:10435c00880ac3f814a052f8288008f101084e44ca
:10436c0042f82680dcf80080de6ad8f82c309e42b9
:10437c0088bf01200b681b68002bc3d00b68db685f
:10438c00db685e68b442c2d3d3f81480de689f68e1
:10439c00be609f68776003f10409d8f804604e454d
:1043ac0004bfde68c8f80460c3f814b0d8f8006025
:1043bc00013ec8f80060d3f82880b8f1000fa9d0ee
:1043cc001e6adf69be60df69776003f1180ad8f8ee
:1043dc000460564504bf1e6ac8f80460c3f828b0d0
:1043ec00d8f80060013ec8f8006093e70c4a1368e7
:1043fc000133136000206ce754b7002074b7002021
:10440c0064b7002040b7002040b4002078b70020eb
:10441c0044b7002048b7002068b700205cb70020e4
:04442c006cb7002049
:020000040000fa
:104430002de9f04383b004460e46814601a904f0fd
:10444000cffd8046002859d194f81580b8f1000faf
:1044500054d1e368b34205d2227d02f00202002a61
:1044600008bf1e46a3690022a261002e46d0019a11
:1044700057897f026bb1013b721eb2fbf7f2b3fbaf
:10448000f7f18a4205d37a421340a361f61ae5692f
:1044900003e0a568002d35d0e56185b1be4258d84e
:1044a000a3693344a361c6f30803002b70d02946e7
:1044b000019805f0befe002865d000eb5625a369e3
:1044c000e268934204d9e360227d42f04002227503
:1044d000c3f3080393b1226aaa420fd094f91430af
:1044e000002b57db01232a4604f130010198407864
:1044f00005f0d2f9804600285ed12562404603b01f
:10450000bde8f0830021204601f0d4fb05460128d8
:1045100004d0b0f1ff3f06d0a060bde74ff0020825
:1045200084f81580eae74ff0010884f81580e5e784
:104530002946484602f094f80546b5f1ff3f18d0e9
:10454000012d1bd9019bdb69ab4217d9e561b7424d
:10455000a6d2f61ba3693b44a361237d13f0020f8f
:10456000e6d02946484601f0a5fb05460028e4d1df
:10457000a5e74ff0010884f81580bfe74ff0020867
:1045800084f81580bae74ff0020884f81580b5e783
:104590001d4694e7012304f130010198407805f0ad
:1045a000c3f820b9237d03f07f0323759ae74ff00a
:1045b000010884f81580a1e74ff0010884f8158000
:0245c0009ce776
:020000040000fa
:0245c200fee712
:020000040000fa
:1045c4002de9f04f87b00190894600929a4605aada
:1045d400012104f03eff002840f0a380ddf81480a0
:1045e400564b984540f29f8010264ff63e42b8fb4a
:1045f400f6f393421cd9760016f0ff06f7d14ff478
:1046040000720021504605f06bffff264c4ba3fbc4
:1046140008235b090293a9f104090af5e3740af576
:10462400fb733f25dff81cb1cdf80ca09a464de092
:104634004ff400720021504605f052ffe6e7a8eb64
:104644000507002f53d02946204605f009ff3946b7
:10465400201d05f005ff009b04f8043cabfb05237b
:10466400ea1a03eb52035b09b3fbf6f206fb1231c1
:1046740004f8071c910821f03f01c3eb8313eb1ae4
:1046840001330b4304f8063c04f8052c3d446a1e30
:10469400abfb0213d11a03eb51035b09b3fbf6f036
:1046a40006fb103104f8031c810821f03f01c3eb21
:1046b4008313d31a01330b4304f8023c04f8010cae
:1046c400544517d055b3103445450dd259f8047fdd
:1046d400642f03d81abf029b5f4347467b194345a7
:1046e400add8ab42add2aae7ddf80ca004e0ddf80a
:1046f4000ca001e0ddf80ca055238af8fe31aa23b2
:104704008af8ff31012300225146019805f00af886
:10471400003018bf012007b0bde8f08fddf80ca011
:10472400eae70120f7e74ff400720021504605f054
:10473400d7feb8f13f0fdfd9082667e7f7e1070096
:084744001f85eb510541100433
:020000040000fa
:10474c002de9f04f87b00392002840f0b5800f465a
:10475c001e465b4b1c686069b0f1ff3f2ed0636a4c
:10476c001b699b680593b3f5007f0fd94fea53285b
:10477c00b8f1010f16d0524b01229a75002e00f0a1
:10478c00888004f11c030493029653e0059ab2f559
:10479c00007f07d04ff40073b3fbf2f303fb07f772
:1047ac0003fb06f6022384f82130a3680096dd682b
:1047bc003b46039a04f11c01a847e06907b0bde829
:1047cc00f08f4ff0020384f821306069a3684ff436
:1047dc00007200929b681e46059a0bfb02f3394a45
:1047ec000499b047029e94f92120022a06d1a368ad
:1047fc00db6a002bf9d020699847f4e7029642b99e
:10480c006a0203992f4b03eb4a2005f0f3fd2d4a66
:10481c001ee02b4b00229a754ff0ff30cee702962c
:10482c00002a30d1029b5b1b02932f44039b03ebaa
:10483c0045230393b7fbf8fb08fb1b7aa8eb0a098b
:10484c004d46029b994528bf1d46a845b9d1039af0
:10485c00029eb1451fd24ff0020384f821306069eb
:10486c00a36801210091d3f80c905b460499c847ca
:10487c0094f92120022ad2d1a368db6a002bf9d04b
:10488c0020699847f4e70e4b00229a754ff0ff30e1
:10489c0094e7b346039a0a4b00219975022384f8d6
:1048ac0021306069a36801210091dd685b4604f149
:1048bc001c01a847e06981e74ff0ff307ee700bf9d
:0848cc0094b80020b0ac0020fc
:020000040000fa
:1048d4002de9f04387b081460f461646984604f00a
:1048e40055fa002800f0ad800446f6b1efb1256812
:1048f40095f8303013b1eb6a4b451fd105f13809f7
:104904004ff6ff71484605f036fb012823d00024fa
:10491400504b1b78002b00f095804e4b00221a70f0
:1049240005f1440005f032fc8ce00e9b002b00f0f6
:104934008d80b8f1000fdad1002483e04ff6ff71c7
:1049440005f1440005f017fb002800f08180414b7d
:1049540001221a70d2e7ab69a3424bd00df1040ccb
:1049640004f1080ebee80f00ace80f00def80030da
:10497400ccf8003022696b6a53f822300393e26862
:10498400ab6a53f82230029362692b6a53f82230df
:1049940004936b691b68002101a8984700232377bf
:1049a40094f91830b3f1ff3f0ed0627e32bb03f0ae
:1049b4001f02c3f34a1303f5020000f580700121be
:1049c4009140c00105f08bfeac6163695a1e072a51
:1049d40022d80e9b5b000e9376006b695c680e9b7d
:1049e400424631463846a0470446e0b9484605f0f9
:1049f400cdfb8de7237f002bd2d0afe703f01f025e
:104a0400c3f34a1303f5020000f5807001219140bd
:104a1400c00105f062fed7e7092bded10e9b9b0097
:104a24000e93b600d9e74ff6ff7105f1400005f08b
:104a340093fa012803bfac7fb4fa84f46409002418
:104a4400d4e70024204607b0bde8f0830024f9e74a
:084a54000024f7e7a5b70020dc
:020000040000fa
:104a5c002de9f04196b00190022215a901a8fdf7ad
:104a6c00c5fd044618b1204616b0bde8f0814ff0e4
:104a7c00203302930393cdf80f30019b1b781f2b2f
:104a8c0053d9002540f2b517dff83c8182e02e4661
:104a9c0052e0109a02ab03cb1060516019889b78de
:104aac00118193725de0042801d00446dbe7002eef
:104abc00d9d0012108a803f0f7ff04460028d2d171
:104acc0020220021109805f007fd109b0822da72b5
:104adc00109a02ab03cb1060516019889b7811813e
:104aec00937215980123037102f002ff0446bae792
:104afc000624b8e70624b6e70624b4e70624b2e792
:104b0c000624b0e70624aee79df80830e52bf5d077
:104b1c00202cbcd116ab3344513b6eb1711e13f833
:104b2c000129202a08d10e46f7e79df80830e52b1d
:104b3c0001d1062497e70026159b089300210a91c2
:104b4c0008a802f047f9044600288cd1012108a8d6
:104b5c0000f01efd0028a6d1002e9ad1109be52254
:104b6c001a7015980123037102f0c2fe04467ae70d
:104b7c00092dc5d86e1c16ab1d44230a05f8503cf4
:104b8c00751ce4b216ab334403f8504c019b1b78f4
:104b9c001f2bb9d901a804f08bffb0f5803fa7d229
:104bac0002f066f8394604f0f1f904460028a1d069
:104bbc000146404605f0defb00289dd1ff2cd7d8de
:0c4bcc000a2d9fd82e46dbe71ca300003a
:020000040000fa
:104bd80030b45c4c247f002c40f0ad80054604f0d6
:104be800ff0000294cd0002d4ad0574c646804f0cf
:104bf8000704012c61d053480560426000244461d9
:104c0800846104614f488160002a5cd04d4ad360ba
:104c18004c4a012111774c4a127e12f0040f05d03c
:104c2800494a916a117e11f0040ffad1464a518b14
:104c380041f004015183117e41f080011176414910
:104c48008a68c968914203d93e48c168891a0161d6
:104c58003d49496811f0070f45d13a4989699142a0
:104c680035d2384a11680878374988629169013124
:104c78009161002b5bd0344b04229a7501205be0d4
:104c8800002b59d0002a57d02f4c646804f0070431
:104c9800012c0cd02b4805604260002444618461db
:104ca8000461002daed1274900208860ace70029b7
:104cb80044d113f0010fedd03ee011f0010f3bd1cc
:104cc800002be7d0f5e71f4a0021d160a0e71d4a75
:104cd8001269002acdd01c4aff21916219490a693c
:104ce800013a0a61c5e7174a916849089160116954
:104cf80049081161d1684908d160916892698a426e
:104d080008d2104a116808880f49886291690131f0
:104d18009161aee70b4a1269002aaad00a4a4ff6f7
:104d2800ff71916207490a69013a0a61a1e7012006
:104d3800054b987500e0002030bc704711f0010f5a
:0c4d4800b7d0f9e7a8b500200020014119
:020000040000fa
:104d54002de9f04705f034f8504b1a68013a1a600f
:104d64001b68002b40f093804d4b1b680bb900244b
:104d74008ee000234b491c464b4801264b4adff882
:104d84003ca1dff830c10d68002d5fd0cb68db6833
:104d9400d3f828e0dd691f6aaf601d6adf696f60c0
:104da40003f11808def80450454504bf1d6acef827
:104db40004509c62def80050013dcef80050d3f858
:104dc4001480dd689f68bd609f686f6003f1040e06
:104dd400d8f80450754504bfdd68c8f804505c6118
:104de400d8f80050013dc8f80050dd6ad0f80090b2
:104df40006fa05f848ea0908c0f8008005eb8505bd
:104e040002eb85056d689d60d5f80880c3f80c80b9
:104e1400c8f804e0c5f808e0d3f82c804fea880508
:104e240005eb080e02eb8e09c3f8149052f82ee03d
:104e34000ef1010e454442f825e0daf80050ed6a1f
:104e4400df6aaf429fd3ccf800609ce70bb104f05b
:104e54000bfe174b1c686cb1164e012501e0013c9a
:104e640005d0fff719fa0028f9d03560f7e7104ba1
:104e740000221a600f4b1c6854b10f4b4ff0805244
:104e84001a60bff34f8fbff36f8f012400e000243b
:104e940005f02efa2046bde8f08700bf54b7002085
:104ea4004cb7002080b600205cb7002040b400203e
:104eb4006cb7002078b7002004ed00e040b7002074
:020000040000fa
:104ec4002de9f84fd0f800a000238b75c369002b9f
:104ed40000f093800c460546036bb3f1ff3f2fd0df
:104ee40000263746b04640f2b51b08e004eb080341
:104ef400020a9a75d8750223984400270236daf814
:104f04000c30985b58b32fb900f520539bb2b3f51e
:104f1400006f22d3c8f1ff09594640ea074004f064
:104f240039f8ff2810d9b9f1010fdfd84ff0000983
:104f3400002f18bf4ff00009a144002389f8163050
:104f440000210b462e2615e058b1b9f1000fefd021
:104f540004eb080398750123cee70746cee7c14664
:104f6400e6e74ff00009e3e76018437201311346a6
:104f74000b2a0fd05a1c286ac35c202bf7d0052bb0
:104f840008bfe523092aefd10b29edd86018467232
:104f94000131e9e7631800225a72a37dbbb959b104
:104fa400637a104663b104f1090208274ff0100c2c
:104fb4006ff00706361b29e0481c21443f238b75fc
:104fc4002044002383752b6a1b7b03b963722b6a0d
:104fd400db7a03f03f032372286a1c3005f01cf9c6
:104fe40020602a6ad17d937d43ea0123e3802a6a03
:104ff400517e137e43ea0123a380bde8f88f674600
:105004005373b01812f8013f002bd9d09bb22e2b4a
:10501400f5d0a3f1410189b21929f1d8296a097b94
:085024000f42edd02033ebe751
:020000040000fa
:10502c002de9f84304460f461546012105f0edfa2b
:10503c00064600285ed0524b13f8372042f040024f
:10504c0022702a0e6270c5f30742a270c5f30722c4
:10505c00e270edb2257103ebc7035b786371ff233c
:10506c00a371052fa04614bf062207222146204615
:10507c0005f0c1fa064600283fd008254ff001097b
:10508c004a464146204605f0bbfa0646002839d070
:10509c002378dbb2ff2b01d1013df1d12378dbb2b8
:1050ac00ff2b34d0237884f89d30354b03ebc703aa
:1050bc009b78012b31d0324b03ebc7077d682a4616
:1050cc002146204605f09cfa0746002851d0012db8
:1050dc000cd005f19d03234404f19e0061199d3110
:1050ec00ca1aa25c03f8012d8342f9d10021204693
:1050fc0005f08bfa3046bde8f8830021204605f018
:10510c0084faf7e70021204605f07ffaf2e7002148
:10511c00204605f07afa0026ece76421204604f0dc
:10512c00d3fd0546c8b101252a464146204605f067
:10513c0067fa0746b8b194f84e3013b92378002bb0
:10514c00f2d1204605f090f82378002bced1002127
:10515c00204605f05afa0026cce70021204605f03f
:10516c0054fa2e46c6e70021204605f04efa3e467c
:10517c00c0e70021204605f048fa3e46bae700bfda
:04518c001873000094
:020000040000fa
:1051900030b5a7b001900091684603f011fa0222e1
:1051a00025a901a8fdf728fa034610b1184627b033
:1051b00030bd259b1893019918a8fdf74ff80346b9
:1051c0000028f3d19df88f3013f0a00f40f08e80af
:1051d000022118a803f0c6f903460028e6d1209d55
:1051e00003ac28686968aa68eb680fc42869696914
:1051f000aa69eb690fc40bac18ad0fcd0fc40fcd6e
:105200000fc40fcd0fc42b68236000990ba8fdf7c6
:1052100025f8034658b90d9a1a9b9a4201d00823e3
:10522000c4e7109a1d9b9a4203d00823bee70428c6
:10523000bcd10ba8fef74ef803460028b6d113994f
:10524000ddf81950ddf81d40ddf82100ddf82520de
:10525000c1f80d50c1f81140c1f81500c1f819206e
:10526000bdf829009df82b20a1f81d00ca779df8f4
:10527000173013f0100f08bf43f02003cb72259caa
:1052800001232371cb7a13f0100f1ad01a9a0d9bb9
:105290009a4216d0204604f0a5fd0146204604f0af
:1052a000c8ff014608b9022380e7204604f002f84f
:1052b000034600287ff47aaf259890f861302e2bb2
:1052c0000bd018a803f0d8f9034600287ff46eaf7e
:1052d000259802f013fb034668e70d9a00f1600180
:1052e00004f0e7fe259b01221a71eae706235de739
:020000040000fa
:1052f000524b586a524b9b7d002b00f09d8070b53d
:105300004f494c6804f007044c4b5a699d699e68ec
:105310000b7e13f0040f56d0896a484bdb6893422a
:1053200051d9002c41d1454b5b6899540132444b13
:105330001b7e13f0010f15d0414b012119753f4b16
:105340009b68ab4255d93d4b1b68595d3c4b9962fc
:1053500001353a4b1b690bb9b54263d0374bdb685b
:10536000934263d0354b5a619d61354b1b7e13f0e0
:10537000020f13d0334b1b78b3b1304bdb68934231
:105380000fd12e4b00221a772d4907240c752d4979
:105390000a701b6a43b1294b1b6a9847294b1b783b
:1053a00013b1274b02229a7570bd244b5b6823f81a
:1053b00012100132224b1b7e13f0010fd2d0204b72
:1053c0000121197509e01e4b1b7e13f0010fc9d096
:1053d0001b4b01211975002cb1d0184b9b68ab42b7
:1053e00013d9164b1b6833f81510154b996201350c
:1053f000afe7124b1b69002babd0114bff21996219
:105400000e490b69013b0b61a3e70c4b1b69002b99
:105410009fd00b4b4ff6ff71996208490b69013b16
:105420000b6196e7074b012119709be7044b0121a3
:1054300099750421197595e7704700bfa8b500203c
:0854400000200141a4b7002087
:020000040000fa
:105448002de9f04184b0044601914ff0000846462a
:1054580045464f4f43e0013ba36323684bb12369a3
:105468005bb904f043ff4ff00108404604b0bde8c3
:10547800f08104f0b9fda060f1e704f1100001f03b
:105488007ff80028edd0424b4ff080521a60bff3ee
:105498004f8fbff36f8fe4e704f028ff4ff0000849
:1054a800e3e702a804f028fe23e004f087fca068e4
:1054b80001f004fa804604f019ff40e0204602f0ab
:1054c80079fcfff743fc09e0204602f073fcfff784
:1054d8003dfc204604f088fe002844d1012604f053
:1054e8006dfca36b002bb6d1019b002bd4d0002ef2
:1054f800d7d004f0fbfe04f0a1ff04f05ffc94f8a1
:1055080044305bb2b3f1ff3f08bf84f8445094f8cd
:1055180045305bb2b3f1ff3f08bf84f8455004f053
:10552800e5fe01a902a802f02bff0028ccd12046f5
:1055380004f05afe0028c1d02368002bb5d0019989
:1055480004f1240004f042fd204602f033fcfff78a
:10555800fdfb0028c2d14ff080533b60bff34f8f53
:10556800bff36f8fbae7b8f1000f3ff47eaf04f0d6
:1055780025fc616a19b1236b1968c1f10501a0689e
:1055880001f016ff04f0b2fe4ff000086de700bf0f
:0455980004ed00e03e
:020000040000fa
:10559c002de9f04f83b00446894607684ff0ff0aa7
:1055ac0055460426d0464ff6ff7b64e00f2a50d1b7
:1055bc0013f0400f0ad090f80da003f0bf036269fe
:1055cc002263427b524506d045464ee09d4218bfb1
:1055dc0045464ad1f5e7c17e827e52ea01226fd15f
:1055ec00fe680196057825f04005013d05eb450266
:1055fc0005eb8205334901f10d0e4ff0010c0093c0
:10560c006346b44603e05a455ad171450fd011f8a0
:10561c00012b86187678825c42ea0622002bf2d0a7
:10562c00ff2d4dd82cf8152013460135ede79c467f
:10563c00009b027812f0400f08d0bcf1000f05d08f
:10564c00ff2d3dd80022019921f81520013bddb238
:10565c000be01db904f06dfc50452dd04ff0ff331d
:10566c00236329e0454600e045460021204601f031
:10567c00bff80646f0b9e169c9b1384603f014fe2b
:10568c000646b8b9206a03789bb1c27a02f03f0291
:10569c00a271e52be6d02e2be6d022f020010829b2
:1056ac0014bf00210121494580d04546dde71eb1dc
:1056bc0000e004260023e361304603b0bde8f08f20
:0856cc004546d2e774a400007a
:020000040000fa
:1056d4002de9f047d6b001908946064600220270b3
:1056e40048a901a8fcf786ff0746002865d1489b16
:1056f4004993d3f818a0cdf82ca1baf1000f64d0c7
:105704004c464ff0200800252be002a949a8fff7da
:10571400d7fb9df81e30002b72d00df11e012b46d5
:1057240000e013465a1c11f8010f0028f9d1991c06
:10573400a14256d8002a46d056a90b44a3f59d731e
:10574400a21a013c13f8010901990855a242f8d1a3
:10575400541e019b2f221a55ddf82ca1baf1000f1b
:1057640043d0414649a801f039fb002833d1509970
:10577400489803f09dfd80bb5199489804f030fb94
:105784004b90294649a801f029fb40bb294649a86a
:10579400fff702ff034660b95199489804f020fbd3
:1057a4005045b2d0294649a801f026f803460028fe
:1057b400ecd0042b14bf1f46022700233370384655
:1057c40056b0bde8f0872246c2e74c46013c019b37
:1057d4002f221a550be00746efe70746ede7074689
:1057e400ebe71127e9e71127e7e7a145eed0631cb2
:1057f400019a125d06f8012b1c469945f7d8dce79f
:08580400002cf0d02246a3e7be
:020000040000fa
:10580c00f0b597b00190022215a901a8fcf7eefea5
:10581c00044610b1204617b0f0bd159b08930199b2
:10582c0008a8fcf715fd0446b0b10428f2d19df888
:10583c004f3013f0200f0dd1159b0393002103a8bb
:10584c0000f032fa054648b1012d69d104f0baf9dd
:10585c0002246be00624dde70824dbe704f0b2f950
:10586c00072463e004f0aef906462946159802f0c9
:10587c00cffe0446002859d115984ff0203303640d
:10588c004364c0f847302e2480f84040102380f841
:10589c004b303146563004f0dffd15982a4600f1a6
:1058ac00400104f000fc159800f16001034653f828
:1058bc0040efd3f804c09f68da68c0f860e0c1f824
:1058cc0004c08f60ca60d3f810e0d3f814c09f698d
:1058dc00da69c1f810e0c1f814c08f61ca6180f8b0
:1058ec0061400a9a04f0dffb159b01221a7108a88b
:1058fc00fdf7eafc0446c8b931461098163004f09e
:10590c00abfd2a461099159804f0cdfb109b102284
:10591c00da7215980123037101f0eaff044679e766
:10592c00b5f1ff3f9ed104f04df901240022294628
:08593c0003a801f072fe6de703
:020000040000fa
:105944002de9f047012940f28980c3698b4240f276
:10595400878016460c4605460378022b4dd0032b50
:1059640060d0012b03d002273846bde8f08701eb55
:105974005108816a01eb582103f09afc074600287c
:10598400f2d105f1400908f1010ac8f3080814f03e
:10599400010f1ad019f8083003f00f0343ea061375
:1059a40009f8083001232b71a96a01eb5a21284612
:1059b40003f07efc002855d1caf308014944c6f31c
:1059c40007120a7001232b71cee709f8086001233e
:1059d4002b71a96a01eb5a21284603f069fc0028bf
:1059e40042d1caf3080a09eb0a0119f80a3023f074
:1059f4000f03c6f303221a43e3e7816a01eb142180
:105a040003f056fc07460028aed105f140036100bf
:105a140001f4ff7158185e54c6f307224270012343
:105a24002b71a1e7816a01ebd41103f041fc074615
:105a3400002899d126f0704605f14003a10001f435
:105a4400fe715c18204604f0e7fb00f0704131431e
:105a5400204604f005fd01232b7185e7022783e727
:0c5a6400022781e707467fe707467de741
:020000040000fa
:105a70002de9f04784b00446884601921d464ff058
:105a800000094e46424f33e02a464146204602f086
:105a90004ffa636a73b938b13d4b4ff080521a60c8
:105aa000bff34f8fbff36f8f04f024fc012004b0cd
:105ab000bde8f08704f1240000f066fd0028f3d073
:105ac000334b4ff080521a60bff34f8fbff36f8f8d
:105ad000eae704f00ffc0020e9e702a804f010fb5d
:105ae00014e0204602f06af9fff734f94ff001099b
:105af00004f068f9a26be36b9a42c5d3022dc3d0c0
:105b0000019b002be5d0b9f1000fe6d004f0f2fbc9
:105b100004f098fc04f056f994f844305bb2b3f109
:105b2000ff3f08bf84f8446094f845305bb2b3f19e
:105b3000ff3f08bf84f8456004f0dcfb01a902a820
:105b400002f022fce8b904f03df9d4f838a0d4f80a
:105b50003c9004f0cffbca45c3d1019904f1100079
:105b600004f038fa204602f029f9fff7f3f800288c
:105b7000bcd14ff080533b60bff34f8fbff36f8fab
:105b8000b4e7204602f01af9fff7e4f800208ee7a8
:045b900004ed00e040
:020000040000fa
:105b940030b4434b434a1a604ff400121a61012097
:105ba40083f84c0083f84d0083f84e00022283f8fa
:105bb4004f2083f8502083f8512083f8522083f833
:105bc400532083f8552083f8580083f8590083f84c
:105bd4005b20222483f8364083f83720002183f8a1
:105be400381083f8391083f83a10772583f83c503d
