:020000040000fa
:10000000f0ff0220311f0000432100005f290000a3
:10001000573000002f3100000332000000000000c4
:10002000000000000000000000000000f12e0000b1
:10003000372c00000000000091230000212d00005b
:1000400043330000433300004333000043330000d8
:1000500043330000433300004333000043330000c8
:10006000433300004333000043330000c92c000039
:1000700043330000433300004333000043330000a8
:100080004333000043330000433300004333000098
:100090004333000043330000433300004333000088
:1000a0004333000043330000433300004333000078
:1000b0004333000043330000433300004333000068
:1000c0004333000043330000433300004333000058
:1000d0004333000043330000433300004333000048
:1000e0004333000043330000000000000000000024
:1000f000000000004333000043330000433300009e
:100100004333000043330000433300004333000017
:100110004333000043330000433300004333000007
:1001200043330000433300004333000043330000f7
:1001300043330000433300004333000043330000e7
:1001400043330000433300004333000043330000d7
:1001500043330000433300004333000043330000c7
:1001600043330000433300004333000043330000b7
:1001700043330000433300004333000043330000a7
:100180004333000043330000433300004333000097
:1001900000000000433300004333000043330000fd
:1001a0004333000043330000433300004333000077
:1001b0004333000043330000433300004333000067
:1001c0004333000043330000433300004333000057
:1001d0004333000043330000433300004333000047
:1001e0004333000043330000433300004333000037
:1001f0004333000043330000433300004333000027
:100200004333000043330000433300004333000016
:100210004333000043330000433300004333000006
:1002200043330000433300004333000043330000f6
:1002300043330000433300004333000043330000e6
:1002400043330000433300004333000043330000d6
:1002500043330000433300004333000043330000c6
:020000040000fa
:10026000f8b500bff8bc08bc9e467047552a000090
:10027000f8b500bff8bc08bc9e467047312a0000a4
:020000040000fa
:1002800098a800201c0000000000000018a9002011
:100290000c0000000000000068a8002030000000f2
:1002a0000000000014a70020a000000000000000d3
:1002b0002ca9002008000000000000007caa0020fb
:1002c0000400000001000000aaaaaaaa34a9002084
:1002d00004000000000000000000002000a000005a
:1002e0000000000038a900201000000000000000fd
:1002f000b4a70020640000000000000048a900200e
:100300001400000000000000b4a800202800000035
:10031000000000005ca900201000000000000000a8
:10032000dca8002014000000000000006ca90020e0
:100330000400000000000000f0a8002028000000d9
:100340000000000070a9002008000000000000006c
:1003500080aa00200400000001000000040000004a
:1003600078a90020040000000000000014a600206e
:1003700000010000000000008ca900200200000025
:10038000000000007ca90020040000000000000024
:1003900018a80020500000000000000090a90020d4
:1003a0006c000000010000009ca9002098a900201a
:1003b0009ca90020000000002500000008a00020eb
:1003c0000004000000000000000000000000000029
:1003d000000000000000000000000000000000001d
:1003e00000000000a5330000000000000000000035
:1003f0000000000000000000552400000000000084
:1004000000000000000000000000000000000000ec
:100410000000000000a00020080400000000000010
:100420005caa002020000000010000000100000084
:1004300003000000000000000000000000000000b9
:10044000000000000000000024a9002024a90020d2
:10045000080000000000000080a900200400000047
:100460000000000008a400200c02000000000000b2
:10047000fca9002060000000010000000100000055
:100480000300000000000000000000000000000069
:1004900000000000000000008126000000000000b5
:1004a000000000000000000089330000b5330000a8
:1004b000000000000000000000000000000000003c
:1004c000000000000000000000000000000000002c
:1004d00000000000000000000000000084a90020cf
:1004e0000800000000000000000000000000000004
:020000040000fa
:1006c0002de9f84307460e4698469500284601f066
:1006d00073fc002800f0c9808146542001f06cfcb6
:1006e0000446002800f08c805422002102f012fe03
:1006f000c4f830902a46a521484602f00bfe043d7e
:10070000236b1d4425f007058eb1337884f834300f
:1007100053b1334604f134010f3613f8012f01f8b9
:10072000012f0ab1b342f8d1002384f84330089b6b
:10073000042b28bf04239946e3626364261d3046d8
:1007400002f01ffe04f1180002f01bfe2461c9f143
:100750000503a361646242463946284602f0cafa9c
:100760002060099b03b11c6002f028fc434a136817
:1007700001331360424b1b68002b47d0414b1b6871
:100780003bb93f4b1b68da6ae36a9a429cbf3c4b19
:100790001c603d4a136801331360e36a3b490868f3
:1007a00001229a4002430a60394a03eb830302ebb9
:1007b00083035b68a3609968e1604e609e60e06ab5
:1007c0008300191889005518656151580131034497
:1007d0009b00d15002f02afd2a4b1b68002b48d009
:1007e000274b1b68da6ae36a9a4244d2294b4ff0de
:1007f00080521a60bff34f8fbff36f8f012036e036
:10080000484602f0d4fd4ff0ff3030e01c4b1c6036
:100810001368012bbdd11e4d284602f0dcfc05f10a
:10082000140002f0d8fc05f1280002f0d4fc05f118
:100830003c0002f0d0fc05f1500002f0ccfc164f59
:10084000384602f0c8fc154d284602f0c4fc144896
:1008500002f0c1fc134802f0befc134802f0bbfcde
:10086000124b1f60124b1d6093e74ff0ff30bde845
:10087000f8830120fbe70120f9e700bf48a9002029
:100880003ca900206ca9002054a9002058a90020f0
:10089000b4a7002004ed00e0b4a80020c8a8002000
:1008a000dca8002004a90020f0a8002040a9002016
:0408b00044a9002037
:020000040000fa
:1008b400052800f2eb80dfe800f0030c144c84b54b
:1008c400002940f0e380724b4ff48062c3f8142196
:1008d4007047002940f0da806d4b4ff480225a6152
:1008e4007047002900f0d280694b4ff48062c3f84e
:1008f40018210139032900f2c980dfe801f0020c54
:100904001620634b4ff40062c3f814214ff4805255
:10091400c3f8142170475e4b4ff40062c3f81421ee
:100924004ff48052c3f818217047594b4ff40062ba
:10093400c3f818214ff48052c3f814217047544b64
:100944004ff40062c3f818214ff48052c3f8182101
:100954007047002900f09a804d4b4ff48062c3f831
:1009640018210139032900f29180dfe801f0020c1b
:100974001620474b4ff40042c3f814214ff4804231
:10098400c3f814217047424b4ff40042c3f81421ba
:100994004ff48042c3f8182170473d4b4ff4004296
:1009a400c3f818214ff48042c3f814217047384b20
:1009b4004ff40042c3f818214ff48042c3f81821c1
:1009c4007047002962d0324b4ff480229a6101397a
:1009d40003295bd8dfe801f0020b141d2c4b4ff404
:1009e40000225a614ff48032c3f814217047284b17
:1009f4004ff400225a614ff48032c3f81821704733
:100a0400234b4ff400229a614ff48032c3f814212f
:100a140070471f4b4ff400229a614ff48032c3f8a1
:100a240018217047002931d0194b4ff480229a6164
:100a3400013903292ad8dfe801f0020c1620144bef
:100a44004ff40022c3f814214ff48022c3f8142178
:100a540070470f4b4ff40022c3f814214ff4802247
:100a6400c3f8182170470a4b4ff40022c3f8182129
:100a74004ff48022c3f814217047054b4ff4002231
:100a8400c3f818214ff48022c3f81821704700bf1f
:040a9400008000419d
:020000040000fa
:100a98002de9f04f87b0044601280ad00020a31e94
:100aa800082b75d8dfe803f06f82888e949aa9af77
:100ab800bd00634c204602f069fcc0f3004b2046a1
:100ac80002f064fcc0f3404a204602f05ffcc0f329
:100ad800c049204602f05afcc0f38048204602f084
:100ae80055fcc0f38057204602f050fcc0f3c056b6
:100af800544802f04bfc10f4001f32d10024e4b239
:100b08004f4802f043fcc0f300654d4802f03efc3c
:100b180000282cdb0020c3b201934b4802f036fcbe
:100b280010f4004f29d1002007238df808308df8e4
:100b380009b08df80aa08df80b908df80c808df80f
:100b48000d708df80e608df80f408df81050019bd8
:100b58008df811308df812000b2102a802f098f9d7
:100b680021e0204602f012fcc0f3c054c7e7344825
:100b780002f00cfcc0f3c030cde7314802f006fcaf
:100b8800c0f3c030d0e72e4802f000fcc0f30040ac
:100b980006238df814308df815408df816000321c2
:100ba80005a802f075f907b0bde8f08f244802f0f7
:100bb800edfbc0f34040ebe7214802f0e7fbc0f350
:100bc800c040e5e71e4802f0e1fbc0f38040dfe7e4
:100bd8001b4802f0dbfbc0f38050d9e7194802f04c
:100be800d5fb10f4001f02d10020c0b2d0e7144892
:100bf80002f0ccfbc0f3c050f7e7114802f0c6fb87
:100c0800c0f30060c4e70e4802f0c0fb002802db16
:100c18000020c0b2bce70a4802f0b8fbc0f3c030fd
:100c2800f7e7094802f0b2fb10f4004f02d10020a8
:100c3800c0b2ade7024802f0a9fbc0f3c030f7e745
:0c0c4800808000410081004100800041dc
:020000040000fa
:100c54002de9f04f85b0019001a801f007ff0028ad
:100c640003da002005b0bde8f08f019b1b095d1e6f
:100c7400202d0fd9023b5b4ab3f5007f35bf02eb51
:100c8400d30302ebd31313f8045c13f8045c34bfee
:100c9400013511350123a5f12001c5f1200203fa24
:100ca40001f923fa02f203fa05f849ea0209d8f134
:100cb40000084d4f69eb4909d7e9002302ea080a05
:100cc40003ea090b5aea0b0342d1019b03a8103330
:100cd400039302f089fa18b9444b0c221a60c1e755
:100ce400d7f80852a84206d0039b103b0393012374
:100cf40000f110058360039bea18012143f001030e
:100d0400b5f1080442f8083c42f8041cc7f808226c
:100d140045f8043ca5d0204601f0bcff88b155f845
:100d2400083c55f8041c23f00103e31a5a6822f026
:100d340001020a445a6055f8041c21f00101625072
:100d44001c462046019901f05bff04f1080089e785
:100d54005046244a264bbaf1000f34d1cbf100019e
:100d640001ea0b014b4302ebd36393f83c6020365a
:100d7400304602f031f9731c57f8334007ebc303d4
:100d8400083b9c4298d0272e26dd0235ae4201dc7a
:100d94003f2e21d16168019a21f001018d1a284664
:100da40001f0defe864217d1a318e068a668d86079
:100db4009e608360986842f00102c360c3e9002525
:100dc40065506260bde7caf1000101404b4302eb8c
:100dd400d36393f83c60cbe73146204601f0f2fb45
:100de400afe700bf2426000008a4002084a9002047
:040df40029e66b077a
:020000040000fa
:100df8002de9f84f584b1b68002b40f0a780574b44
:100e08001c6801341c60b4b1554b1b68a3421fd940
:100e18000020544b1b68db6a03eb83039b00524a98
:100e2800d358022b28bf0120504b1b68002b18bf3a
:100e38000120bde8f88f4e4a11684e4b18681060c3
:100e480019604d4a13680133136002f00df8dbe7af
:100e5800002047498346494d4ff0010e424adff8ca
:100e680004c137e03e4b4ff0ff321a60d1e73c4bec
:100e78001e60cee7de6ad5f800a00efa06f848ea4a
:100e88000a08c5f8008006eb860602eb8606766837
:100e98009e60d6f80880c3f80c80c8f80490c6f89d
:100ea8000890d3f82c904fea890606eb090802eb64
:100eb800880ac3f814a052f8288008f101084e44a3
:100ec80042f82680dcf80080de6ad8f82c309e4292
:100ed80088bf01200b681b68002bc3d00b68db6838
:100ee800db685e68b442c2d3d3f81480de689f68ba
:100ef800be609f68776003f10409d8f804604e4526
:100f080004bfde68c8f80460c3f814b0d8f80060fd
:100f1800013ec8f80060d3f82880b8f1000fa9d0c6
:100f28001e6adf69be60df69776003f1180ad8f8c6
:100f38000460564504bf1e6ac8f80460c3f828b0a8
:100f4800d8f80060013ec8f8006093e70c4a1368bf
:100f58000133136000206ce750a9002070a900201d
:100f680060a900203ca90020b4a7002074a9002093
:100f780040a9002044a9002064a9002058a9002005
:040f880068a9002034
:020000040000fa
:100f8c002de9f04702f014f8504b1a68013a1a6038
:100f9c001b68002b40f093804d4b1b680bb9002451
:100fac008ee000234b491c464b4801264b4adff888
:100fbc003ca1dff830c10d68002d5fd0cb68db6839
:100fcc00d3f828e0dd691f6aaf601d6adf696f60c6
:100fdc0003f11808def80450454504bf1d6acef82d
:100fec0004509c62def80050013dcef80050d3f85e
:100ffc001480dd689f68bd609f686f6003f1040e0c
:10100c00d8f80450754504bfdd68c8f804505c611d
:10101c00d8f80050013dc8f80050dd6ad0f80090b7
:10102c0006fa05f848ea0908c0f8008005eb8505c2
:10103c0002eb85056d689d60d5f80880c3f80c80bf
:10104c00c8f804e0c5f808e0d3f82c804fea88050e
:10105c0005eb080e02eb8e09c3f8149052f82ee043
:10106c000ef1010e454442f825e0daf80050ed6a25
:10107c00df6aaf429fd3ccf800609ce70bb101f064
:10108c00f1fe174b1c686cb1164e012501e0013cba
:10109c0005d0fff7abfe0028f9d03560f7e7104b11
:1010ac0000221a600f4b1c6854b10f4b4ff080524a
:1010bc001a60bff34f8fbff36f8f012400e0002441
:1010cc0002f0aef82046bde8f08700bf50a9002022
:1010dc0048a90020dca8002058a90020b4a70020b3
:1010ec0068a9002074a9002004ed00e03ca90020b0
:020000040000fa
:1010fc0010b50446012909d0431e092b54d8dfe84a
:10110c0003f051575d63696f757f8596431e092bfc
:10111c004ad8dfe803f005080e141a2026303640b2
:10112c0000f03afd40e0494b4ff48032c3f8982070
:10113c003ae0464b4ff40032c3f8982034e0434b6e
:10114c004ff40022c3f898202ee0404b4ff480223d
:10115c00c3f8982028e03d4b4ff48002c3f8982048
:10116c0022e03a4b4ff40012c3f818214ff400025e
:10117c00c3f8982018e0354b4ff08072c3f89820d4
:10118c0012e0324b4ff00042c3f898204ff400426b
:10119c00c3f8982008e02d4b4ff400429a61c3f835
:1011ac00982001e000f04afd2046fff76ffc10bdcf
:1011bc00264b4ff48032c3f89420f5e7234b4ff4c1
:1011cc000032c3f89420efe7204b4ff40022c3f811
:1011dc009420e9e71d4b4ff48022c3f89420e3e7f9
:1011ec001a4b4ff48002c3f89420dde7174b4ff4f1
:1011fc000012c3f814214ff40002c3f89420d3e773
:10120c00124b4ff08072c3f89420cde70f4802f0d8
:10121c00bbf810f4004f04d10c4b4ff40042c3f850
:10122c0094200a4b4ff00042c3f89420bce70848c6
:10123c0002f0aaf8002804db044b4ff40042c3f878
:10124c009420024b4ff400425a61ade700800041fc
:04125c00808000414d
:020000040000fa
:101260002de9f04184b0044601914ff00008464654
:1012700045464f4f43e0013ba36323684bb12369cd
:101280005bb901f0d3ff4ff00108404604b0bde860
:10129000f08101f019ffa060f1e704f1100000f007
:1012a000a7fa0028edd0424b4ff080521a60bff3ee
:1012b0004f8fbff36f8fe4e701f0b8ff4ff00008e6
:1012c000e3e702a801f058ff23e001f077fea068f1
:1012d00000f0fafa804601f0a9ff40e0204600f055
:1012e000f1fefff753fe09e0204600f0ebfefff7aa
:1012f0004dfe204601f064ff002844d1012601f094
:101300005dfea36b002bb6d1019b002bd4d0002e29
:10131000d7d001f08bff01f0edff01f04ffe94f804
:1013200044305bb2b3f1ff3f08bf84f8445094f8f7
:1013300045305bb2b3f1ff3f08bf84f8455001f080
:1013400075ff01a902a801f055f80028ccd120466c
:1013500001f036ff0028c1d02368002bb5d00199d9
:1013600004f1240001f0a2fe204600f0abfefff7de
:101370000dfe0028c2d14ff080533b60bff34f8f6a
:10138000bff36f8fbae7b8f1000f3ff47eaf01f003
:1013900015fe616a19b1236b1968c1f10501a068d6
:1013a00000f0a4fc01f042ff4ff000086de700bf21
:0413b00004ed00e068
:020000040000fa
:1013b4002de9f04784b00446884601921d464ff05b
:1013c40000094e46424f33e02a464146204600f08b
:1013d400f3fe636a73b938b13d4b4ff080521a6023
:1013e400bff34f8fbff36f8f01f01eff012004b0d6
:1013f400bde8f08704f1240000f0f8f90028f3d0e8
:10140400334b4ff080521a60bff34f8fbff36f8f8f
:10141400eae701f009ff0020e9e702a801f0aafecb
:1014240014e0204600f04cfefff7aefd4ff001093a
:1014340001f0c2fda26be36b9a42c5d3022dc3d067
:10144400019b002be5d0b9f1000fe6d001f0ecfed2
:1014540001f04eff01f0b0fd94f844305bb2b3f1fb
:10146400ff3f08bf84f8446094f845305bb2b3f1a1
:10147400ff3f08bf84f8456001f0d6fe01a902a829
:1014840000f0b6ffe8b901f097fdd4f838a0d4f81d
:101494003c9001f0c9feca45c3d1019904f1100082
:1014a40001f002fe204600f00bfefff76dfd002860
:1014b400bcd14ff080533b60bff34f8fbff36f8fae
:1014c400b4e7204600f0fcfdfff75efd00208ee748
:0414d40004ed00e043
:020000040000fa
:1014d80030b4434b434a1a604ff400121a6101209a
:1014e80083f84c0083f84d0083f84e00022283f8fd
:1014f8004f2083f8502083f8512083f8522083f836
:10150800532083f8552083f8580083f8590083f84e
:101518005b20222483f8364083f83720002183f8a3
:10152800381083f8391083f83a10772583f83c503f
:1015380083f83d102c4dc3f8805083f8cc0083f815
:10154800cd0083f8cf2083f8d02083f8d12083f80a
:10155800d22083f8d32083f8d40083f8d50083f809
:10156800d62083f8d72083f8d82083f8de2083f8a4
:10157800df2083f8b64083f8b71083f8b81083f8f3
:10158800b91083f8ba4083f8bb1083f8bc1083f80d
:10159800bf101648c3f8000183f84a2183f84b218d
:1015a80083f84c2183f84d2183f84e2183f84f218d
:1015b80083f8502183f8512183f8522183f853216d
:1015c80083f8552183f8351183f8361183f83711dc
:1015d80083f8381183f8391183f83a1130bc704711
:1015e8000080004100802f080080cfc100fc2f0040
:020000040000fa
:1015f800374b00221a7403f50063364a9a621a467a
:10160800536813f0100ffbd1334b4222c3f88420e8
:101618001a46d2f8843013f0400ffad02f4b00222c
:101628009a6377225a631a46d36b13f0040ffbd1df
:101638002a4b022283f830201a46d36b13f0020f8c
:10164800fbd1264a136c03f00303032bfad1244b76
:1016580001225a711a46d37813f0010ffbd01e4ba2
:10166800204a1a621a46536813f0040ffbd11a4b2a
:101678001d4a5a621a46536813f0080ffbd1164bdd
:101688004122c3f8dc201a46d2f8dc3013f0400fb0
:10169800fad0114b4122c3f8e0201a46d2f8e030c4
:1016a80013f0400ffad00c4b4122c3f808211a4618
:1016b800d2f8083113f0400ffad0094b6ff07f428f
:1016c8001a6140f2ff725a61084a9a61704700bf76
:1016d8000014004006013000001c004000100040cb
:1016e80000080040070101000701020056840100bc
:020000040000fa
:1016f8002de9f84300286ad050f8043ca0f108040a
:1017080023f00107e6193268934200d0ffde7268c1
:1017180023681340da070fd4204601f0b9fa0028ed
:1017280057d1304601f00efb0028f0d0736823f043
:1017380001031f441e44eae747f00103636038468b
:10174800336001f00bfa054601f044fc2368726827
:101758001340db07e0d5dff88ce0dee90089c5f14e
:10176800200ca5f1200228fa05f009fa0cfc29fa48
:1017780002f240ea0c001043012100ea01020023b2
:101788001343c5f120007346a5f1200212d121fab6
:1017980000f001fa02f2a94042ea00021ebfdef898
:1017a80000000143cef8001022b1def804100a430d
:1017b800cef80420681c03ebc003a3f1080267609d
:1017c8003760a2605a68e2605c60e3689c60bde8cc
:1017d800f883236823f00103e41a636823f0010304
:0817e8001f449ee708a4002045
:020000040000fa
:1017f00030b4c368db689a6ad869196a8160d869ad
:10180000486003f118005168814204bf196a5160b1
:1018100000219962116801391160254a1268002a75
:1018200039d15a699868d968816098684860181dec
:101830005168814204bfd968516000215961116823
:1018400001391160da6a1b4c256801219140294356
:101850002160194902eb820201eb820252689a6010
:101860009468dc6060609060dc6aa20010198000ff
:101870000d185d61085801302244920088500f4acb
:101880001168da6acb6a9a4283bf01200c4b186058
:10189000002030bc70470b4a5168d9618c681c62cb
:1018a000606088609a62116801311160e7e700bfeb
:1018b00050a9002058a90020b4a700203ca900206e
:0818c00074a90020dca800203f
:020000040000fa
:1018c800002856d070b50446c26a2b490968c96a0f
:1018d8008a4245d28169002905db27490968c96a16
:1018e800c1f10501816102eb8202244901eb820208
:1018f8006169914205d0204a1268d26ae2620120e9
:1019080036e0251d284601f013fb38b91c490b6841
:10191800e06a0122824023ea02030b60164b1b682f
:10192800db6ae36216490e68012000fa03f23243cb
:101938000a60124a03eb830302eb83035b68a3602c
:101948009968e1604d609d60e56aab0059198900ae
:1019580056186661515801442b449b00d15007e04a
:10196800054a1268406cd36a98422cbf00200120b7
:1019780070bd0020704700bf3ca90020b4a700201c
:0419880058a900203a
:020000040000fa
:10198c00f8b52d494c6ad1e90623561c43f10007e2
:10199c00c1e90667002c4dd091f82030013381f855
:1019ac002030a36823b1a368013ba3604c6afcb14f
:1019bc00a368ebb9012500271f4e0ae0e06901f08e
:1019cc00adf8e3680bb120699847746a84b1a368d9
:1019dc0073b925756575a37813b9e368002bedd140
:1019ec00204600f01dffa378002bead16770e8e7d2
:1019fc00124d00242e46274603e001342035052cd9
:101a0c0012d006eb44135b7d002bf6d006eb44138f
:101a1c005f75ab78012bf0d16b6806eb44129360c9
:101a2c00284600f007fbe8e7034a92f82030013b18
:101a3c0082f82030f8bd00bf68a8002014a7002051
:020000040000fa
:101a4c0070b504460e46234b1d68234b18680430b2
:101a5c0001f06cfa48b9204b1a6820490b68d06a1f
:101a6c000122824023ea02030b60b4f1ff3f0dd048
:101a7c002c44194b1b685c60a5421dd9184b186887
:101a8c00154b1968043101f09df870bd002eefd094
:101a9c00144a5168104b1868816018688c68c460cf
:101aac001868043060601868043088601b685a61dc
:101abc00136801331360e8e70b4b1868064b196881
:101acc00043101f07ff8094b1b68a34284bf074b1c
:101adc001c60dae770a900203ca9002058a900205e
:101aec0044a90020f0a8002040a9002060a90020f3
:020000040000fa
:101afc00244b1b681bb1244b01221a60704710b594
:101b0c00214b00221a60214b1b681b6b1a68b2f127
:101b1c00a53f03d15a68b2f1a53f23d01b4b1868df
:101b2c001968343101f0acfb194b1b68b3fa83f321
:101b3c00dbb2c3f11f03174a9900c81802eb8000ef
:101b4c00446864684460194402460832944212d0d6
:101b5c0003eb83030f4a02eb83035b68da680b4bde
:101b6c001a6010bd9a68b2f1a53fd7d1db68b3f10a
:101b7c00a53fd3d1d8e760680a46064901eb82023b
:101b8c005060e5e750a9002074a900203ca9002072
:081b9c0058a90020b4a70020a5
:020000040000fa
:101ba40070b4274b4ff40045c3f898504ff00042ef
:101bb400c3f898209d614ff40012c3f818214ff424
:101bc4008031c3f898104ff40030c3f898004ff4f4
:101bd4000024c3f898404ff48022c3f898204ff4af
:101be4008006c3f898604ff40006c3f898604ff07d
:101bf4008076c3f898604ff40066c3f818614ff418
:101c04008056c3f81861c3f818514ff48045c3f8df
:101c140018519c61c3f81811c3f81841c3f818216e
:101c24004ff40054c3f81841c3f81801986199613e
:101c34004ff48061c3f818119a6170bc704700bffb
:041c440000800041db
:020000040000fa
:101c480070b4274b4ff40045c3f894504ff000424e
:101c5800c3f894205d614ff40012c3f814214ff4c7
:101c68000030c3f894004ff48031c3f894104ff457
:101c78008022c3f894204ff40024c3f894404ff412
:101c88008006c3f894604ff40006c3f894604ff0e0
:101c98008076c3f894604ff40066c3f814614ff47b
:101ca8008056c3f81461c3f814514ff48045c3f843
:101cb80014515c61c3f81411c3f81441c3f814211a
:101cc8004ff40054c3f81441c3f814015861596122
:101cd8004ff48061c3f814115a6170bc704700bf9b
:041ce8000080004137
:020000040000fa
:101cec00002846d038b50446426c914238bf1146a4
:101cfc00c26a8a4202d0806c012800d038bde162f1
:101d0c00a0690028a4bfc1f10501a16102eb820208
:101d1c00184901eb820261699142efd1251d2846d9
:101d2c0001f004f938b914490b68e06a01228240c9
:101d3c0023ea02030b60e36a0f49086801229a4008
:101d4c0002430a600b4a03eb830302eb83035b68d9
:101d5c00a3609968e1604d609d60e06a830019188a
:101d6c008900551865615158013103449b00d150cd
:0c1d7c00c4e77047b4a7002058a900205d
:020000040000fa
:101d880000283ed038b50446c36b002b3bd0006c0e
:101d9800a0fb03230bb1002036e00d4601f00af941
:101da8002268216ce36b03fb01f3d018a0600020cc
:101db800a06362605b1a1344e360ff2384f8443035
:101dc80084f84530a5b923691bb901f02bfa012025
:101dd8001ae004f11000fff707fd0028f5d00b4bbf
:101de8004ff080521a60bff34f8fbff36f8fece74d
:101df80004f1100001f0ebf904f1240001f0e7f917
:101e0800e3e700207047002038bd00bf04ed00e084
:020000040000fa
:101e180000283bd070b50446826c013a8264c06adf
:101e2800616c884234d00ab1002070bd251d284657
:101e380001f07ef838b917490b68e06a0122824040
:101e480023ea02030b60636ce362c3f10502a2613b
:101e580010490e68012000fa03f232430a600e4a64
:101e680003eb830302eb83035b68a3609968e1607b
:101e78004d609d60e56aab00591989005618666186
:101e8800515801442b449b00d150cee700207047a5
:0c1e98000020cae758a90020b4a70020d1
:020000040000fa
:101ea4002de9ff41836946690093f61acde9016182
:101eb40004461746039216444ff002086d46424604
:101ec4002946206800f081ffb04209d1d4e90232ea
:101ed400c4e905331a44a262384604b0bde8f0816f
:101ee40000280dda6268002342f01002b8f1020ff4
:101ef400a362c4e90533626015d06b68ff1aebe78f
:101f04006b68984288bf0835a6eb000688bfc01ae4
:101f14002b6803442b606b68a3eb000088bf08f1b7
:0a1f2400ff386860cbe71f46d6e7e0
:020000040000fa
:021f2e007047fa
:020000040000fa
:101f300008b5194b9847194b9847eff3108172b6c3
:101f4000174ad2f8883043f47003c2f88830bff3e0
:101f50004f8fbff36f8f01b962b6124a936823f0b7
:101f6000010393601346da6812f0010ffbd10d4ba9
:101f700024225a6001229a6000f080fc0a4b23f070
:101f80007f03074a9360094b9847094b9847094bd1
:101f9000984701f0cff9fee7ad330000ad33000004
:101fa00000ed00e000600041000000006d25000031
:081fb000ad330000ad33000069
:020000040000fa
:101fb80038b5044610f0070f05d020f007030833a2
:101fc800834225d91c4601f091f9184b1b686bb167
:101fd80024b3174b1b681c4449f6f77294420bd87c
:101fe800a3420cd3fef7ceff1ae000240f4a114b90
:101ff80023f007031360ebe7fef7c4ff10e00b4a7a
:1020080015681d440a4b1c60fef7bcff5db907e06c
:1020180001f06cf9054b1b68002be6d0fef7b2ff08
:1020280001f039f90025284638bd00bf34a9002041
:0820380038a900200700002078
:020000040000fa
:1020400000283cd02de9f04186461d4b5a6ad0f855
:102050000880c2b1936844460025984518d30020f3
:1020600000219368c01841f100019369abb1d3f826
:1020700008c010eb0c0641f10007bd4208bfb44296
:102080000bd31a46ede7c0f808800d4b586214e0f8
:102090000b4b58628261002003e0cef81830c2f882
:1020a00018e0a8eb0000cef80800def8183023b1e5
:1020b000def808109a68521a9a60bde8f0817047fd
:0420c00068a80020ec
:020000040000fa
:1020c40070b5054600f078ff95f8454064b2002ce1
:1020d40011dd6b6a7bb105f1240606e001f036f9e7
:1020e400013c64b23cb16b6a2bb13046fff77efb16
:1020f4000028f5d0f2e7ff2385f8453001f094f885
:1021040000f05aff95f8444064b2002c11dd2b69ad
:102114007bb105f1100606e001f018f9013c64b248
:102124003cb12b692bb13046fff760fb0028f5d09a
:0e213400f2e7ff2385f8443001f076f870bd25
:020000040000fa
:02214200fee7b6
:020000040000fa
:1021440059b338b50d4658bb174800f0d6ff0128df
:1021540002d04ff0ff3025e02b68144c63604ff43d
:102164000072e260b5f90420228100200021c4e954
:1021740006010025656284f820501b6829460c4836
:10218400984763685b689847a0222946094801f08c
:10219400bff802232370204604e04ff0ff3070475d
:1021a4004ff0ff3038bd00bf90a8002068a8002081
:0821b4008d19000014a70020a2
:020000040000fa
:1021bc0070b504461646856b026c5ab903681bb1a0
:1021cc0000200135a56370bd8068fff71ffe00235a
:1021dc00a360f6e76eb9406801f064f86368226c9e
:1021ec0013446360a268934219d32368636030463a
:1021fc00e7e7c06801f056f8226c5242e3681344da
:10220c00e36021688b4202d2a3681a44e260022e7a
:10221c0001d00020d5e725b1013d0020d1e73046a3
:06222c00cfe70020cde722
:020000040000fa
:10223200f8b5846a05460f46164654b1ab6a6a6918
:102242009b1ab3420bd2324639462846fff729fe83
:10225200f8bd00f0a8ff0028f0d02046f8e7002ed5
:10226200f1d095f93430002b1bdbdbb23446621e11
:10227200b95c994212d1224639462846fff711fe2f
:10228200a042e5d32744341b22463946686901f04f
:102292000ef86b691c446c613046d9e71446002a7b
:0622a200e5d13446f0e72f
:020000040000fa
:1022a80080b5164c164f174edff860802368bbb117
:1022b80000f080fefb68dd68281d00f039fe3368f9
:1022c800013b33602368013b236000f0abff286bc0
:1022d80001f069f8284601f066f82368002be7d179
:1022e800094b1b68012be1d94ff08053c8f8003027
:1022f800bff34f8fbff36f8fd8e700bf4ca9002003
:1023080004a9002048a90020b4a7002004ed00e09b
:020000040000fa
:1023180000b583b0124b019300230093802211492a
:102328001148fef7c9f9012804d0104b1b6803b007
:102338005df804fb4ff0200383f31188bff36f8f20
:10234800bff34f8f0a4b4ff0ff321a60094b01223f
:102358001a60094b00221a6000f0fefae5e700bf98
:102368005ca9002064330000a922000080aa002094
:0c23780060a900206ca9002070a90020c2
:020000040000fa
:0c238400014b18609960704718a90020f8
:020000040000fa
:10239000eff30980bff36f8f154b1a681ef0100f13
:1023a00008bf20ed108a20e9f04f10602de90900e8
:1023b0004ff0200080f31188bff34f8fbff36f8f72
:1023c000fff79cfb4ff0000080f3118809bc1968ef
:1023d0000868b0e8f04f1ef0100f08bfb0ec108a8c
:1023e00080f30988bff36f8f704700bfaff30080a1
:0423f0003ca90020e4
:020000040000fa
:1023f40070b505460c4600f0dffd134b1a682368e0
:10240400b3f1ff3f1ad06968104800682e6886420d
:1024140005d0914203d80023236001240fe0501a11
:10242400834203d800232360012408e09b1a0b4451
:102434002360284600f09efe002400e0002400f003
:10244400f3fe204670bd00bf70a9002064a90020df
:020000040000fa
:102454007fb5c36800911546002b18bf013a01925d
:1024640082680446cde902230e46022269460068ca
:1024740000f096fc002808dc00f0180383f0080242
:1024840063681343636005460fe0019a8242fad2ff
:10249400a368e363801ae268184420642ab15a1cd2
:1024a400e2632e441b7806f8013c284604b070bd54
:020000040000fa
:1024b40010b500f015ff00b910bd00f0d9fd0028db
:1024c400fad10e4c0121204600f086f923680d2b29
:1024d40008d00a2b06d00a490a88501c08800949ea
:1024e4008b54e9e70121084800f05cfa044b002210
:1024f4001a80044800f00af8dee700bf78a900203b
:0c2504008ca9002014a6002098330000d1
:020000040000fa
:1025100008b50378303bdbb2013b032b07d8dfe87b
:1025200003f00207121a00f033fe00f019fe08bd96
:102530008178303940783038c9b2c0b2fef7defd5c
:1025400000f00efef3e740783038c0b2fef7a4fa90
:1025500000f006feebe78178303940783038c9b2b8
:0c256000c0b2fef7a7f900f0fbfde0e7b9
:020000040000fa
:10256c000e4a38b5002313600d4a0e4c13600e4a08
:10257c000e4d13600e4a13600e4a13600e4a5362de
:10258c0013610123936000f0c7fe00f00bffac4217
:10259c0000d338bd54f8043b9847f8e780a90020d5
:1025ac0024a800206c02000020a80020700200006b
:0c25bc0018a800201ca8002028a800205f
:020000040000fa
:1025c80070b5d0e90245a54217d10122a1f1200337
:1025d800c1f1200622fa06f602fa03f333438a40d1
:1025e800db43d6431ab10c490a6832400a605a1cc8
:1025f8001fbf094a51680b4053604368ac6043f001
:10260800010223f00103e56042601844036843f0c7
:0c2618000103036070bd00bf08a4002097
:020000040000fa
:102624002021222324242525262627272828282854
:10263400292929292a2a2a2a2b2b2b2b2c2c2c2cee
:102644002c2c2c2c2d2d2d2d2d2d2d2d2e2e2e2eb6
:102654002e2e2e2e2f2f2f2f2f2f2f2f000117022c
:102664001d1813031e1b190b1408040d1f161c122e
:0c2674001a0a070c1511090610050f0ebc
:020000040000fa
:1026800038b50d46044608b9002038bd43689b069e
:1026900007d5d0e905239a4216d80023c4e90533ab
:1026a000a362d4e90f13994204d20122c91a206807
:1026b00000f07afe0023c4e90f33002de4d0206837
:1026c000bde8384000f063be0022c36a1146984757
:0c26d0006369002be1d14ff0ff30d6e72a
:020000040000fa
:1026dc00134bda6822f4e0621204120c42f0bf626f
:1026ec0042f40032da60bff35f8f62b6e02183f808
:1026fc0023100c4a82f80b134ff4006111605a6ad4
:10270c0042f480225a625a6942f010025a615a6aa3
:10271c0042f400325a625a6a42f480325a6270476a
:08272c0000ed00e000e100e017
:020000040000fa
:1027340008b500f0cdfd104b1b680021186800f0af
:10274400dffd0e4b1b680021186800f0d9fdfef771
:10275400c1fefef74fff00f01ffafff7e6fb00f0a3
:1027640013f807490020fff7ebfc064b186000f054
:10277400b7fcfff7b1ff08bd94a9002078aa002098
:08278400e82e00002ca9002042
:020000040000fa
:10278c00124b01221a801a46136913f0010ffbd168
:10279c000e4b48f280121a801a46136913f4004f3c
:1027ac00fbd10a4b01221a621a46136913f0200f4f
:1027bc00fbd1064b00225a621a46136913f0400fe4
:1027cc00fbd1024b4ff480725a81704700240040b9
:020000040000fa
:1027dc0010b370b506460d4600f028fad5b10024aa
:1027ec000e4a137e13f0040ffbd0538b13f0070f1c
:1027fc000bd1536803f00703012b936a14bf3355b5
:10280c0026f814300134a542ebd1a54214bf0020a8
:10281c00012070bd2c46f8e70020704700400141b4
:020000040000fa
:10282c00124b5a6a02b310b4824204d18369a3b129
:10283c00002206e01a46936963b19842fad1836983
:10284c0023b1846899682144996042b1836993618a
:10285c00002383615df8044b70471a46f5e7034b80
:10286c005a6a92695a62f3e7704700bf68a8002061
:020000040000fa
:10287c0070b50e4b0e4a0021934208d30d480e4df5
:10288c004ff6ff76016829b943681bb970bd03f890
:10289c00011bf1e783684268334000f10c0455f8e2
:1028ac0023302046984704eb8000ebe70000002023
:0c28bc00000000208002000040320000fc
:020000040000fa
:1028c800022a70b5044616461d461ad043689b0670
:1028d80017d441b9002d08bf4ff4806505f10800f1
:1028e800fef7b4f901466368012e43f020036360e4
:1028f800c4e9021514bfff230a2384f83430024bbd
:0c290800e362002070bd00bf332200001d
:020000040000fa
:1029140070b5d8b10546a0fb0132d2b901fb00f075
:1029240010f1490f17d80c464830fff743fb064611
:1029340068b114b100f1480300e003463360f56365
:10294400346401213046fff71dfa00e000263046ca
:0a29540070bd0026fbe70026f9e73e
:020000040000fa
:02295e00fee792
:020000040000fa
:1029600010b50e4b1a6842f460021a601a6842f001
:1029700060421a6000f068fa0024094b1c6000f005
:102980004bfc084a136843f04043136000f048fad8
:10299000fff7b4f800f002fb204610bd20ed00e088
:0829a0007caa002034ef00e0e6
:020000040000fa
:1029a800d0b110b40446c9b1084421460c4a644267
:1029b800137e13f0010ffbd0536803f00703012bbc
:1029c80014bf0b7834f81130936201318142efd192
:1029d80001205df8044b7047002070470120f8e79c
:0429e8000040014169
:020000040000fa
:1029ec0038b5044600f03afc002c16db63090c49a0
:1029fc0051f8235004f01f04e54005f001050122b5
:102a0c0002fa04f4203341f82340bff34f8fbff395
:102a1c006f8f00f02cfc284638bd0025f9e700bf6d
:042a2c0000e100e0e5
:020000040000fa
:102a300010b5054c227832b9044b13b10448aff3fa
:102a400000800123237010bd98a800200000000022
:102a50000000000008b5034b1bb103490348aff366
:102a6000008008bd000000009ca8002000000000bd
:020000040000fa
:102a70000c4a036810b5546a0b4a591e121b8a424d
:102a80000ad22bb1094b0c221a604ff0ff3010bd57
:102a9000102202600020fae7173323f00f030360cf
:102aa000f8e700bf28a80020efffff7f84a90020df
:020000040000fa
:102ab000431e13f1030f0fd883b2042b0ed80a4a1a
:102ac00002eb4312d26982420ad15a0106498a5c5a
:102ad00042b101eb4310704700207047002070475f
:0c2ae000002070470020704714a7002061
:020000040000fa
:102aec000c4b93f820300bb10120704710b54ff60a
:102afc00ff71094800f07cfa012801d0002010bdbc
:102b0c00044cb4f90800fff76bff84f82100012096
:0c2b1c00f5e700bf68a8002090a800208a
:020000040000fa
:102b280010b50446fff7deffb0b12046fff7bcff43
:102b3800044678b1437843b9002020756075207049
:102b4800044600f055f9204610bdfff76bfe002340
:0c2b58006370f1e70124f4e70124f4e7c6
:020000040000fa
:102b640000090138202813d9b0f5007f05d2094b9c
:102b740003ebd00010f8040c7047b0f5e05f06d802
:102b8400044b03ebd01010f8040c103070473f20b6
:082b9400704700bf2426000079
:020000040000fa
:102b9c000a4b0b4a1a604ff622029a814ff44032cc
:102bac005a601a46d369002bfcd1044a136843f0cf
:102bbc0002031360d369002bfcd170470040014124
:042bcc0004011040b0
:020000040000fa
:102bd00030b40d68b5f1ff3f02d000f1080202e009
:102be000026904e01a4653681c68ac42fad953687b
:102bf0004b6099608a60516008610368013303602b
:042c000030bc70472d
:020000040000fa
:102c0400426822f00102531a102b10b40ed9441852
:102c140043f0010341f0010121606360835041608e
:102c240004f108005df8044bfef764bd5df8044b45
:022c34007047e7
:020000040000fa
:022c3600fee7b7
:020000040000fa
:102c38000a4b5b8b13f0070f0ed0084b80221a76d5
:102c480007225a831b7e13f0040f05d0034b9a6aa0
:102c58001a7e12f0040ffad1704700bf00400141fc
:020000040000fa
:102c680000b583b0074b01930123009300234ff471
:102c7800806205490548fdf71ffdfff749fb03b0d2
:102c88005df804fb30a90020443300005d330000e8
:020000040000fa
:102c980070b505462c68e30701d500200fe02046f3
:102ca800fff75cff064600f095f92868a042f1d1cd
:102cb80020f00100281a3146fff782fc012070bd80
:020000040000fa
:102cc80008b5084b9a8992b207494a604cf2ff321c
:102cd8009a819b890b6823b10b46486889681b68f1
:0c2ce800984708bd0024004018a90020f7
:020000040000fa
:102cf4004ff0807340f8043c21f0010140f8081cb7
:102d0400054b40f80c3c40f8202c6ff0020340f8cf
:0c2d1400243c4438704700bf9d2f000095
:020000040000fa
:102d200008b54ff0200383f31188bff36f8fbff313
:102d30004f8ffef761f818b1034b4ff080521a60c5
:0c2d4000002383f3118808bd04ed00e0bf
:020000040000fa
:102d4c0070b505466c68e30701d500200de0204600
:102d5c00fff702ff064600f03bf96b68a342f1d186
:0c2d6c0028463146fff72afc012070bd0c
:020000040000fa
:102d7800074b1968024609b90649196018680649d7
:102d880002448a4294bf1a604ff0ff30704700bf78
:0c2d980088a9002088aa002088ac002038
:020000040000fa
:102da4002de9f0410024804617460e462546bd42d3
:102db40002db2046bde8f081726856f8081b4046e5
:0a2dc40000f029f901350444f1e79d
:020000040000fa
:102dce002de9f0410024804617460e462546bd42a9
:102dde0002db2046bde8f081726856f8081b4046bb
:0a2dee0000f04ff901350444f1e74d
:020000040000fa
:102df80010b5084c94f82110b4f9080000f0baf89e
:102e080094f8203003b110bd04f1280000f07ff9d8
:082e1800f9e700bf68a80020e3
:020000040000fa
:102e200008480068006880f308884ff0000080f3cd
:102e3000148862b661b6bff34f8fbff36f8f00dfa8
:082e400000bf000008ed00e0f6
:020000040000fa
:102e4800054b00221a6005490a60054a05491160c8
:102e580007221a60704700bf10e000e018e000e0a9
:082e680014e000e0bfd40100fa
:020000040000fa
:102e7000074b1b681b6823b9064b4ff0ff321a60e3
:102e80007047034b1b68db681a68024b1a60704777
:082e900040a9002060a9002008
:020000040000fa
:102e980010b5002907dd431e5c1813f8012f3032e6
:102ea8001a70a342f9d1fff77bfd02210148fff711
:082eb80077fd10bd9c33000002
:020000040000fa
:102ec00090f948305a1e1343426880f8483012f097
:102ed00004031bbf42f010024260c0e90f334ff001
:082ee000ff3008bf18467047df
:020000040000fa
:082ee800043200000b000000a1
:020000040000fa
:102ef000074b19680868b0e8f04f80f30988bff302
:102f00006f8f4ff0000080f311887047aff300809f
:042f10003ca90020b8
:020000040000fa
:102f140010b5024600210120fff7fafc044638b13f
:102f2400002181600160c1600b460a46fef740fa49
:042f3400204610bd66
:020000040000fa
:102f38000369416882688a60416851605a688242c0
:102f480004bf82685a60002202611a68013a1a6056
:042f5800186870473e
:020000040000fa
:102f5c00064b1b7813f0800f07d1044a137843f00b
:102f6c00020313709368002bfcd1704700200040c3
:020000040000fa
:102f7c0051b1002808db420900f01f00012303fabd
:102f8c0000f0024b43f82200704700bf00e100e064
:020000040000fa
:102f9c0082b0002301934ff0200383f31188bff319
:102fac006f8fbff34f8f019b002bfcd002b070478b
:020000040000fa
:102fbc004ff0200383f31188bff36f8fbff34f8f54
:102fcc00024a136801331360704700bf7caa0020cb
:020000040000fa
:102fdc00064b013053f830203ab9c100a1f1080278
:102fec001a44194443f830204a60704708a4002062
:020000040000fa
:102ffc0008b54ff6ff73994208bf4ff0ff310068d8
:0e300c00fef728f9012814bf0020012008bd9e
:020000040000fa
:10301a0038b550b952b10c46012529462046fff76a
:0e302a00d8fb0028f9d0012000e0002038bdbe
:020000040000fa
:1030380010b50023934206d113f0030018bf0120f6
:0e30480000eb930010bdc45ccc540133f2e7e2
:020000040000fa
:02305600fee793
:020000040000fa
:10305800054a138823f002031b041b0c1380136911
:0c30680013f0020ffbd170470024004061
:020000040000fa
:1030740010b5054b588b10f0070401d1204610bd44
:0c308400fff7d8fdfae700bf0040014153
:020000040000fa
:1030900038b50d461446012801d0204638bd2146da
:0c30a0002846fff781fc0028f9d0f6e775
:020000040000fa
:1030ac0010b50c46044b19681831fff78bfd012144
:0c30bc002046fef7c5fc10bd3ca900201a
:020000040000fa
:1030c800054b1b6823b1044b1a68936c0133936456
:0c30d800014b1868704700bf3ca90020a5
:020000040000fa
:1030e40008b5fef7affdfff74ffb00f01ff80b200c
:0a30f40000f028f8fff730ff08bdd8
:020000040000fa
:1030fe0003680bb10020704710b504460120fff79e
:08310e0002ff2060012010bd4a
:020000040000fa
:1031160008b500231a4619460068fef748f9012843
:0831260014bf0020012008bdc8
:020000040000fa
:02312e00fee7ba
:020000040000fa
:10313000044a138843f002031380136913f0020f4b
:08314000fbd1704700240040a0
:020000040000fa
:10314800044a537803f0f00300f00f000343537070
:08315800704700bf0020004099
:020000040000fa
:10316000044b9b6813f0100f02d1024ba5221a7377
:08317000704700bf0020004081
:020000040000fa
:10317800034b1b680360034b1b684360704700bf29
:0831880064a9002070a90020d9
:020000040000fa
:1031900000b583b005238df80430012101a8fff7a5
:0831a0007bfe03b05df804fba7
:020000040000fa
:1031a80010b50446fff788fe28b9a368e268c4e9a9
:0831b80005331344a36210bdae
:020000040000fa
:1031c00010b50446fff7fafea46b00f02ff8b4fa2e
:0631d00084f0400910bd6f
:020000040000fa
:1031d60000f1080343604ff0ff328260c360036171
:0631e600002303607047a6
:020000040000fa
:1031ec000068002808b501da002008bdfff7befd15
:0631fc00431cfad1f8e7c4
:020000040000fa
:02320200fee7e5
:020000040000fa
:103204008523000031310000593000007d33000077
:0432140000000000b6
:020000040000fa
:10321800dff80c00016841f470010160704700009c
:0432280088ed00e04d
:020000040000fa
:10322c00034a1368013b13600bb983f31188704791
:04323c007caa002048
:020000040000fa
:10324000c332000039300000a1330000a133000078
:04325000a1330000a6
:020000040000fa
:1032540008b500f08df8024b1860586008bd00bf37
:0432640024a9002079
:020000040000fa
:10326800eff3108072b6bff35f8fb0fa80f04009b9
:0232780070479d
:020000040000fa
:10327a0018b1bff35f8f62b6704772b6bff35f8f44
:02328a0070478b
:020000040000fa
:10328c004ff0200383f31188bff36f8fbff34f8f81
:02329c00fee74b
:020000040000fa
:10329e004ff0200383f31188bff36f8fbff34f8f6f
:0232ae00fee739
:020000040000fa
:1032b00010b500239a4200d110bdcc5cc454013338
:0232c000f8e72d
:020000040000fa
:1032c2000a440023914201d10020704701f8013bda
:0232d200f8e71b
:020000040000fa
:1032d400024b40f204521a80704700bf0040004184
:020000040000fa
:1032e400024b187ec0f38000704700bf00400141cc
:020000040000fa
:1032f400024a136801331360704700bf50a90020cd
:020000040000fa
:1033040000294ff480630cbf02220022fff7dabacf
:020000040000fa
:1033140002440346934200d1704703f8011bf9e7c6
:020000040000fa
:1033240008b5fff795ff00f042f800f040f808bd3b
:020000040000fa
:0e33340008b50020fff7fcf9fff794fcfce75a
:020000040000fa
:02334200fee7a4
:020000040000fa
:0c3344004150505f5461736b730000bf78
:020000040000fa
:0c335000014b01221a60704774a9002094
:020000040000fa
:08335c0008b500f005f8fce7dc
:020000040000fa
:0833640049444c45000000bf84
:020000040000fa
:08336c0008b5fff7a1f808bd48
:020000040000fa
:0833740000487047fca900208d
:020000040000fa
:06337c004ff48060704771
:020000040000fa
:0633820000230361704707
:020000040000fa
:063388000068fff781bea2
:020000040000fa
:06338e004ff0ff30704714
:020000040000fa
:04339400006a704714
:020000040000fa
:04339800000000bf72
:020000040000fa
:04339c000d0a000016
:020000040000fa
:0433a0000020704752
:020000040000fa
:0433a400002070474e
:020000040000fa
:0433a800002070474a
:020000040000fa
:0233ac00704768
:020000040000fa
:0233ae00704766
:020000040000fa
:0233b000704764
:020000040000fa
:0233b200704762
:020000040000fa
:0233b400704760
:020000040000fa
:0200000400807a
:044000003912003c35
:020000040000fa
:0200000400807a
:044004008000a82a66
:020000040000fa
:0200000400807a
:04400800ffffffffb8
:00000001FF
